{"abi":[{"type":"constructor","inputs":[],"stateMutability":"nonpayable"},{"type":"function","name":"verifyProof","inputs":[{"name":"_pA","type":"uint256[2]","internalType":"uint256[2]"},{"name":"_pB","type":"uint256[2][2]","internalType":"uint256[2][2]"},{"name":"_pC","type":"uint256[2]","internalType":"uint256[2]"},{"name":"_pubSignals","type":"uint256[4]","internalType":"uint256[4]"},{"name":"merkleTreeDepth","type":"uint256","internalType":"uint256"}],"outputs":[{"name":"","type":"bool","internalType":"bool"}],"stateMutability":"view"},{"type":"error","name":"Semaphore__VKPtBytesMaxDepthInvariantViolated","inputs":[{"name":"actual","type":"uint256","internalType":"uint256"},{"name":"expected","type":"uint256","internalType":"uint256"}]}],"bytecode":{"object":"0x608060405234801562000010575f80fd5b506200002360206200002960201b60201c565b6200018f565b5f6020600e8360ff166200003e919062000109565b6200004a919062000109565b9050806040518061382001604052806138008152602001620040f261380091395114620000cf576040518061382001604052806138008152602001620040f2613800913951816040517fbd6021b5000000000000000000000000000000000000000000000000000000008152600401620000c692919062000164565b60405180910390fd5b5050565b5f819050919050565b7f4e487b71000000000000000000000000000000000000000000000000000000005f52601160045260245ffd5b5f6200011582620000d3565b91506200012283620000d3565b92508282026200013281620000d3565b915082820484148315176200014c576200014b620000dc565b5b5092915050565b6200015e81620000d3565b82525050565b5f604082019050620001795f83018562000153565b62000188602083018462000153565b9392505050565b613f55806200019d5f395ff3fe608060405234801561000f575f80fd5b5060043610610029575f3560e01c8063a23f01991461002d575b5f80fd5b6100476004803603810190610042919061059e565b61005d565b6040516100549190610632565b60405180910390f35b5f8061006883610450565b90506103ef565b7f30644e72e131a029b85045b68181585d2833e84879b9709143e1f593f0000001811061009e575f805260205ff35b50565b5f6040518381528460208201528560408201526040816060836007611f40fa9150816100cf575f805260205ff35b8251604082015260208301516060820152604083608083600660c8fa9150816100fa575f805260205ff35b505050505050565b5f608086015f87016080890151815260a089015160208201526101325f88013560e08b015160c08c0151846100a1565b61014c60208801356101208b01516101008c0151846100a1565b61016660408801356101608b01516101408c0151846100a1565b61018060608801356101a08b01516101808c0151846100a1565b833582527f30644e72e131a029b85045b68181585d97816a916871ca8d3c208c16d87cfd4760208501357f30644e72e131a029b85045b68181585d97816a916871ca8d3c208c16d87cfd4703066020830152843560408301526020850135606083015260408501356080830152606085013560a08301527f245229d9b076b3c0e8a4d70bde8c1cccffa08a9fae7557b165b3b0dbd653e2c760c08301527f253ec85988dbb84e46e94b5efa3373b47a000b4ac6c86b2d4b798d274a18230260e08301527f07090a82e8fabbd39299be24705b92cf208ee8b3487f6f2b39ff27978a29a1db6101008301527f2424bcc1f60a5472685fd50705b2809626e170120acaf441e133a2bd5e61d2446101208301527f0ae1135cffdaf227c5dc266740607aa930bc3bd92ddc2b135086d9da2dfd3e2a6101408301527f2b86859fd3d55c9d150fb3f0aeba798826493dd73d357ab0f9fdaced9fc818296101608301525f88015161018083015260205f018801516101a08301527f198e9393920d483a7260bfb731fb5d25f1aa493335a9e71297e485b7aef312c26101c08301527f1800deef121f1e76426a00665e5c4479674322d4f75edadd46debd5cd992f6ed6101e08301527f090689d0585ff075ec9e99ad690c3395bc4b313370b38ef355acdadcd122975b6102008301527f12c85ea5db8c6deb4aab71808dcb408fe3d1e7690c43d37b4ce6cc0166fa7daa61022083015285356102408301526020860135610260830152885161028083015260208901516102a083015260408901516102c083015260608901516102e08301526020826103008460086203aeb5fa8251811693505050509695505050505050565b60405161038081016040526104065f86013561006f565b610413602086013561006f565b610420604086013561006f565b61042d606086013561006f565b61043a608086013561006f565b610448828287898b8d610102565b805f5260205ff35b6104586104dd565b5f6040518061382001604052806138008152602001610720613800913990505f6020600e6001866104899190610678565b61049391906106ab565b61049d91906106ab565b60206104a991906106ec565b90505f5b600e8110156104d55760208102820183015160208202850181815250508060010190506104ad565b505050919050565b604051806101c00160405280600e90602082028036833780820191505090505090565b5f80fd5b5f80fd5b5f8190508260206002028201111561052357610522610504565b5b92915050565b5f8190508260406002028201111561054457610543610504565b5b92915050565b5f8190508260206004028201111561056557610564610504565b5b92915050565b5f819050919050565b61057d8161056b565b8114610587575f80fd5b50565b5f8135905061059881610574565b92915050565b5f805f805f6101a086880312156105b8576105b7610500565b5b5f6105c588828901610508565b95505060406105d688828901610529565b94505060c06105e788828901610508565b9350506101006105f98882890161054a565b92505061018061060b8882890161058a565b9150509295509295909350565b5f8115159050919050565b61062c81610618565b82525050565b5f6020820190506106455f830184610623565b92915050565b7f4e487b71000000000000000000000000000000000000000000000000000000005f52601160045260245ffd5b5f6106828261056b565b915061068d8361056b565b92508282039050818111156106a5576106a461064b565b5b92915050565b5f6106b58261056b565b91506106c08361056b565b92508282026106ce8161056b565b915082820484148315176106e5576106e461064b565b5b5092915050565b5f6106f68261056b565b91506107018361056b565b92508282019050808211156107195761071861064b565b5b9291505056fe223d042d480e6b8aa96ee92c5dc053d7cbac9eeb12b25c7879ef678bc1b67cee0411c9a50fe4fd731c874ea1c7f6411e6ea6037266e687d27cc15452527a38a61c366fb513bd7061f1ffe1b01679ef6935509bdebb0f6a2359ed3c2c55167a8c06c41ae91c52f2b27f7bf76e73f6299ce59f6f67c03b5c1d15ee23ccbace2cf12fad2a9783fc2ba49001eacd3a33e34c302753636d3c46357636dae6c8b2024b19c6002888dcd3e33699c10634a806d2aae224c3d7e59cec5a9b8719b066d2640c3bc3c927533404b7618b19082e24eb2ca334e7bf9dceb958bd3551e9fe7f57270e9bcc58594f6192a2b99d2846f622de39b5937b2a7323cc45e25fcb2093d01e7d1a66aaffd026340c02261fd998650c044a8b0c7fd711e04213a1cd2cd3512424444f3b3621df8c36b258f3554a9c5e2a21a5331717c8aba346c7ac63c97616e036c1a88f983c82227849b01847266a1175919ac332c27799549ce18d36ee0b0ca3b0483c8e42c91944242fc36b40ca910518f9d85a25be8e4a7ef43663ad110cf5e0d819a05a811f7a0c166628530ba6f6d353e8e6a433c064d6fadf060c19bce756e115841dd94ff44541d5ad78130187d67f3c560c2a590bd0937657090dd7a106857421eb01a5bfc3823aa5eb877b1e10e8bdf45de359928b28d1ca3927b6c7af8f5185344561cdfc3a5b049d381fde19a6c1d178c748b30bc5b89cb315ea7c4084328d608b151e9b174a74fb47f84cd5cc4c9093f63d23d8f66704010d1c16cf84a74fbaaec21f0190d887251440559389739fa03a9c82722c6a538014faebe5560369ec0b8807a88ecfa006f7f9795caf1bfcfe261555534cf4e78d0c962615261ca9c1f65cd755e00bc013abf1533a12e81b80b32fc41b0d1fa86d2792793df783c78305175c60e000c53fd96ee07ceb78e470a6c64a1b477c55342096d8bc28b6870f36fc685e6509823ed594339011cb6dde0e8f8d7cc1cc582e109542c42e7879d5f2509059905ece1bd8860e7c820343aa1b30461df91eae951eea6862ae37a2a4392c5801737849adb507f0a3137699241517a3f1ebbb3a48093d3e06748b6704617f4cffeeab1a9c5b788923f7fe09a498749dd9ac9f32532e5f917fa4593965b59fbd36e7644390ba01391b8379a4a204c1c29fd1d17cde2a0dccfc2e6d40de5187062a63a944a907d0d7bb6eb30533a3454057778ed3af1b8f89159c77020c893f3cb7a2a4cc3085dafdab413391192963d2d6f8a71b7d0f073ae26eab905914ac7acdb75527b816507bf5874f1b62510b138763c6981b2efe76868b9464962feb51deeca8613af2840c9a8ddc525770423f41089edc6b246bb276850c226ed5ae364e91f840b7be0a963dde7ea0a2bcb2f32ea644064b2f6a7a99b512977e15a4a74d0f72d1eba14b0c87e9b647421aaed72562744c141a465001f19b05dc38a491b248c97ec7920c03da29e69d805df6dae9ad29c6b80ed2c6a0818f6e04bd3aa8e1a17b0d67c6815feeb8bfe9b3a575bde437ab71141cb929c4998d91a32baae52fc164831ff6bd12474cd8c91189b69f1e8cdb71640c5be902277c48337d1db6b1fb81c89e8689cb10b7ee6af8b9fc5975a730f6eb2dd837a46f2ba2ee8ea9442a9eebd87ed57f594f044c7860b39595eae6ce4d0e119bc8b722e52ff60236302b2e6f4a139f15e63aa0641ae765f3e71c32fb759d25214f618153620b583fbd2abc2eef9a26789f3b5296e90551877a37d362dc95013c611347b3d133ed9045be2c36f8689a0120c4078d12d8cd28c006bc61dda22f0a9559eca7cc75db51c369b05e74c952d5a8ae39b06ed01c8698f4d74d58dc0fee282026bc113cc251580beab7bfbddf2209056fce08c4e356b1a06f1bc9440d019ab06a355bdbfa51b1e5b89fa8e1a59cc3ed78efdebf14cccd425778a0f124c852ffd0bec3eb73101770bf74c9166c2c319e247e5c5b8249ead357af4312127605c73a5a074f7eb1b6d2c28c7c6b2ab38d9c3b722b38d1e1c7e336198f251834bb051ac66b2bf5d94722271108ff7809e00c8ba5e6d4786d99e65953e3d828358bc8e9b03c31481e07909d86cc8386494aa0c6b1fddb6e83911200d2d5bf21309d93ca7e97b55d43c9396f92716ff1ad99b73dc929c566de6c6c721bd04808666e4182c159d4cfd305e1f6f5cfe4ce9243ab5388c2a5a0ab74b600e4bd5e28cfb007611bda022f417d399841a00e543b14076672113b21e9bdf4942eb3fc1281dff49430dbc9d0748814312f5356a1024539516ae19e8b6eb6379421cc83243dc2b640abc1728422276ba4ad24cab39fc7d1ef6cf3d82fe82c9f89efaa7b005cff4d9542e3250c36bf32561e274f8fa928dd3a8d11f4f76c36a4cdeb5e6420b886f89543b54f0403091d51cd88895fbd55aea86d19db8b89cfd55255f8030c0aa8002fb14fb9b4feda737c210d4289d62a014e4bdbf708ad21b53ef62d9625e79b70d1ee02eb3f6c25bfaa7b9a4e1566b0fa70c6c0ca072191897838a3601f5834e4b1f3c4c2be7d246854a9826812062ce203a9f7818ab884a0306b3622121c37e25e942cedbf3bdbd4a53cf3cb4628a36081e1824aa583add4bafc91a62afb6907df29510dce8c6d157e612b5e727779e8b3e7fd963468244becb827b928e70c1e2ea6a01e47e3cf63e6bbf4fb480a106ae94bf1b7711fa98c010b9e5b0d6670f5a24582a747e1d1ae1e0e8da63d7d202210d96dd5078fa58eccd43e361fe26476a17c1dda8d2d1b630ccd263ecd5644529afc3e2973f6961ff3f8712627464f05a8ebb85e8e465599614ced7bec41fcda74ec9f51ae39c392672bc7242ab9a6d1c669a478ceb584e3bc6e1635e3202ec53cbb6f3cc42bbfd7659607c00dd63e17922e2e955c38d47347fd269336d27cb9b9c7a3218c3808507bbc994d19593a3350d5604598530c93362e2836f90f7daa675f73b40bc04d67b0625e3d1682034112be41166846a800dec3f04dc45f7878bd2c5493e443f44efc5c08af0828e223ee37c2d4dfa133c8df747c3ddd415da67e911f2f5cb609a58df64bd0127bfd549e5e8dcf4b22291715f2ad5668cd6c711c2a39c3ffebe93243df40b00dc2c61595d602f4f7b03af6a919263956b5943cb3f5f890bde70de7336233871273f3665d807e7209eb64729ea54ea6c825cd711a8f188a7c8dbfd0626e74a40bfda4e183722faf414237fa9ed12319fb5ee54d43ab955e00453801982db97016fea2e34746afb310849831a045eaa63da4744f1c2b576a49f12273f48ce5d311264fa5d1e4446967b2178473890cc9252ed102c5db6c56368a0987c6ffbb7519546a1616aca8f207e875ebf37977f96c1dfa32ddf16d7eaded9047ab15142f1953bcaad2e145cb2a759cdd65eb7cf493b281b71b0faa6010e30a38b51275192fdb1ef3113503a9db688b32a0b79f3a8125d7967b3962373fb886332a135f7706d774b685f236c190a046ec7fc6147a84260794c543230c4d3f90cc091d0e602cb5b76f44713c49cc24cb3e1715ba081787296b94dbe25ab57742ebf6553df405159d91bd6a0a9c639b0cc27cc39dae457f45225c4bb554264af8e229a52524115001b9e8d8b1463cd86a016c3610f87fc2a10f63bdfcc00cfa99353a4c1a52125537cf6072615205c38045b8ad31d155bdd8acf80c7dc627a7506e642a177c2e83916c6303325ed9513361098830271102ac5dbf285e2645915eeda77a56931ce67dd1edcaac1b03358eb6b2ad3780bd1cd201b91d4bb2e603e01279351fd10f6023308217b2764eb38cf098e1c6c012990e188af20730587292407996a3931169abb3cf5bec07393ad7585ceee78751fbf5ff424901737ab76642aa52bc9f296b6c4e7849d8a1dc8fac95f48fdb8c72807d23a5f2c03978154fd39761dc221ea1e1dab146320bebfe3a0183861132ea13acf7957f9a66f2e61d3b12cea7f31255c43af69be48744c759de67f363030b809ea5be5de707545d1f29dbfcd272110b2f7ac7d7b3f94893762fca13700b74cec691bc57d216ba04e992bd0dc9470652c5b2ba7b972dd68bf8c271556b57ad4521c067a072d75ee09268562cea9d1e6db4b3e0185f2add0d49d60e16168c2f3ea91e2cb05678f2c9d9abe232b3400a96b6eed42e7041c98baa152253971225378ac4cd9589c80cea28c06b5706782650ef83382c54ccfabafaec8096c519ab5670c7d4dea2535c64db2b7dfcb5531664dbfaf0f45d6ce2782683f87e6c9e9b7176f08511ac1663869adf9337eef0212ae8907761700bdea4b480f20f788dd08ca4126dcf4ea462e890f3026344760e50a74cf13a9f5c3eac33a38c6f9e8d3c2638bee309a4180afd6097c52766e41377037809e690222f9afca6e1ee39ba95846bbe912379a938f6ffcb493f5cbc2f87ae4a5a564f795b6078c1e1511c63404183176bfc6f03ec587766d8868cec078706f23a72811efcac3f7cd3a6cc38973d57adbf99bb615d8e364d4c50c9352f0458a92e188177e4bce9f874dc537aad6cd91252f12b862fd0a167a95e41c90207f0a72e420364482932d9117f37989fd77ff9721943ed566b65624a02ca8a10cee567471a2b01cfa286f3095713ffe5855c06f17158e33e9ebfdc1c792a88239ea34b3e8a5d1d26599fcf453537fb16a91f9520317a01c7de1bb5a768d72509b3a1bb0c0be55876c4b91957b7e86412654bf272b7b9c52f2217e9713c7dcc2cea70065cb1bf0b68c86a3592a5134384be8b10de004c31233b783577694dc613aa1864f9d5017a46cb107be441f821a85315b79f39968d6407f343a2c619980005f278bae49a9a15a54132c50388e69f4211ceddee99195f07736b502fadee0302a786d79c25a2be297edd39eaee413dc553146ff7d83bbbb8bc71447b66052eaf36a4dae40401cfa571b55ad8b5fbced37e67860085bc6afc5412d809ce8a166d04b67debdf8e674bd6074bf67031d3b4c558647dc4a3c5443eba23086683232f97fa7f391323e066175feb3572aed60c343c3e3c11ed309c00ffa29cdd37209fbbee38f2dda9c1984658fa4ab5794a3a5fd19da7613c554cee69db7a51d50271f86b9bc2d6ec259de0541bad8d207075dd0547401a7de8a0b1daa2667e6427df2b01c10bf56b288b324ac4cef462dfefebd92740e7216b15eb1a85b182e30b61eb77f42c4efc0b1513d486de63d1023f3169e5e76c3bbed64b4ca350e9641ff842cd59778fb6c75d197511f3158ecac8fafd21db5fa652725be434580ff921095e6eefdda8f7648172826e435e08a93109b1f040d88ec1b01ce3e2dfa59202746d05612699c335d4031f388561fa2c6b3a4c224df74140c58c5dd7391459182427fdf7ec0b8c5a7003e3ae6c19d8da47804a75d62ba4a1f8ce1835d7eb660dcfad648630a6037241a73af244b1612eb375d852712a10182e1339d176471f24611b2e7aad1a1fba1f1eb3193a87a0261e98dbe77fb30944edc6ef5726acda2df51df9c66f51695783648873bc167bc8199afdcf98a6a39dfc14933634cc2500ba85a4d757b2bb24f2686c8fc2b20d23f68ecc5bbd889d70db8222f9c94eeb2a615fc377bd707e1d297df70f60076d184ea30144439d2a02827ccc4b74d6d5083ff5f9b4474040e1db95e7dd4ac08bc49f0df5e04b1601e531087a66e1a9a009736eb920f83da4d3d81d49a3d16a2718b7af21f590d120ac5775d56e87966717c8dd6f1cf33271c97ced9829c0500a8353d922a4ee36cd2a64e8ef99db06b02b4fe13e06cbc8e9f0fb007f7feb24277fef8ce8403846d681b8b77c7fe85ca42df40a5f7f4555887344c54fdcca240d9e1220c9df8a305f4a6ed0b5fcf3258c26e306f7f4400a8b466a46f73b1bb30628e8f53ae183179a89ea09bcab1abe8c1903a292e81db108e9af23cd1c7249087803195ef86af9d7aef43f671bbe28d505c92b5167e06202018a4b1c482dde448604793a2b6d734c3a59f599b457794f109890a7f2fcb50131c7e510faf117da23344b6e50403670b103e8b1b0fea27f1fb6977c76473f7a1d148b69a5526768ac7032ce91f0e138973b3e4d30745fdf22846c8fc4704252020b4a141726ef713f5eda605ded818ee69d101490d5a8b6079b1bc515838f1ad835d87623adef3b1673ca9735ab72d8fc938e206a524e5820d47a675b313cd4b857527f3e6ddd2b5646e5fd9f206aad5bcfaae6cb0958e6064e79c61f6d53a00688e7f217a0c8579ba3daf9d4df5dec16f013a124413f152383c6f75c1a392e6e1375277f1130c2274d8668773addb783207cf58cf4c0b61fc40e1150f35476075a72e0ee5366fb0655cf4a0497d1f4e068e5df2ad7299205c9dff32c5c83675eedfce89d2270ae3115d2ce98dd7cbe37603bce52504e8022de7321ef7d49d583634074d556fb103ed40b5355a61457e7055b2218fc620e269d005f007d6b2f3e7ba54cd6a2beb190223080a1fd94230f409ab223c5b7940c5e61cdfabe2eb8188f70cac4d7b7cdeed9b964792d7dfb6fc0b228a7270e542a586a34c5b50461b05614cbf3ce228c130522513793ec263f9afa96e23f4e5a25ccf30168e9ef4fd1cb902c95ca8d67a13580dd07994094b221708f8c7d6797107dfa97fd9047fae9cf80f48b206884949b324e4ab03212f3298c48189876961cff7a1fcb4f40c410ceb353cb8ab907a0f6b2821dbf82766ec762967ba2394420b8533e0ab744d5db86e30a3e73a80bf621a2b5d8555b0fc416389d5cf532650c9d9b203b72e7887fbc30ac7978146860ea4aa1ff0d96dca2c65666304cacbb1b84d4afa11231f3a4a3c62a0029a39f5ea31d907a92070494990427e7ca6f8814107581ede64e20dce54fffbc6443cec3ca1cb0054c5142187cd21bcb166b7916737e84151e0282876e43177c3830524e3b6ac2eab243a067de3319f8d0b8b42ba33cadc4f1787f00a8a107c76e563325b43a6646961320196dbfc00c4f22da2ad6e07defcb0c49b161fe87df3cfd5eb9a824fd772a69712e947b3b1cfb21d40b96f280c977d717eb22a136ec5d2830fd84afb5096cef17868a451961bb84672cb182b3ace6be4f9319b65c2ae1e672d5a27b5fdf78973fee79c7bd09c81aee019e150e3d992f5175dd609d7b7468a978428a5bbf291b77f900d1c682cba1bf2c04f3db93c0870db5a439e9ff0f2ac65d19edda31f6bf64e9f827516b3f68e72e6c4ce5c33d2f1d00d4c7c691e5d39dfea1c0eb590de777e5fe64365545646f01879179e76aed29e2392a6df0ac85ea6a285e0d3a1112e8593c23c3e33df5a2086975bbb71f10a74a76f43bcb0035481860c6478f23fe914df449b50e56c4922c6feb5c47ad32b1054c98e31df1659881f884939536961bedeff8cfbb6e12820549855c647dcdf03d05c6a490d5541098d6d83bae7da0112a822e0abcece25020f9c4e3fcfa0d305a923e4fb0d9ef583cb141debfeb931c909ef1d4fdf6eac905a3b3663e889c49eb5920e769bbfe9f9dfc905554300bb2b4285c6a5889b2741f9e528d112bd8a059eaa510cbd9a7458598d27775bcf6d851a0d359ebb81dec011469a48978d7076fca2af28c59792502dd9dfafd8198891ec51eace408f26b164c3f0507f0a41247ba9cc307b4b94b3d3f5d56584e9857ab9a62171fd1a495227511480052b638116e221c76d0f32004f3b18905cc8bb20bfda3f78da0b8f51a93b95f80b84b770b1c52be3e7d00588b0ba9d3e4259080b42c95b31b5414732f83002ed31eaca2531766a09552eb1667a9419192ca335b08d93693e5584abc0feccdb53345bdae7349c42b119570c762f1f5497eaf898e4ba2d378d9d8d20d18d01d38cb6ac78d93961c1ecbfaadd4b0cf999b972ce4900cee9faacdf8298a1f31cefa55f5f930d149b63b7a33e385a688aa8a4ff3ff8d88e501dd7466b4751a02607dc91fd27ebb066b51f8dca8d64dec062d3f8ea6a3e2859d139c17e9f225bce5f60cf5c72fe58b511983c067ecab88071786feb4f6cf83e1b5ac35878e199ea7d2467ea66b53853f7ba20a91bb44a4a5f621404375051cbac31997a3661641e4ce35beb44e3d00fd9b7a3bd47e118fcb21c62281b148dfe4097c147e11227cf6075dbc7987ebce58711ed50e2b6a94c1478db414a834345cb2b5c21cb5252bdf93e4bc24d639e1ebd80550001fa9aa1e7d6abcba326c2b2feade8fd8d90d98245785a60faadbc0c044b2e2e0ac808e16fec60b3b73baedd29acee1a34418a77190ddb42dd8be0f01727d46faa6e2f1efd9704d30f9a969470e4da9840714f25459703bda113aa3c2812d841e053b5c08cfdd2d8d92ef7a0bb685e53d211b7dedfae2ee1a8c3ec8d9ac7e35f291d4793e4bf05115a7eb7bcc164a1f53d80f03cbd30fb82d7807479517b4e29b3da4950b96a023a331e52c721c66f5e2292bb6d910684eb13c86f172f66f59a093f8a002333c8767bd594ceb63e9c6a2c41f32b4847858f72bc734df639c032604ae71ff65afbbdcf42acc7ec195f3a39c2a0f1adf6230de3995bce023cdfc6af1e85d9121f84de4a34b9c7fc4ff920c7617fa977e81dac861e637d8d9e4636487afa55618f35f7455af8321f8d6d50d6e09f9221e154ad381a5b58d1c8771be1f47f3aae8a9769151cd84c1434fabcb9b0ea204dbfbd3e404128c8252d607169ef5305bb12a59e44ac4be9147055a6f200d2547a25e17e027bda4423048f3c6c595d6f83124767da34e0e4b96c26f5c940cbd5f2d0cea7678b80aeed4b0de78259c86a2c207dc0f28fcbe22a1252e5d3c1a9b6c59c30e6d1e3c5efae27acc27e9b7bd23af3dd7963a0aa8361b4df2f24312b6c60fbf4cd948013007113196f6ac1743fa7e5ea98b243de8dcd13c1e74d81754b2b575981673e3d30c65ddad7f120e97aa29818478eb56702759f4b78f822764d40d5e2bdd09263e2b6e6e9ffe9ac935ab67e9db1f40a102118409dc99a623dfe208849634939164215af8831f8dee4c3c0ae36d054691c9c8389211c2ce04645153c868372f37d106c5c4bfba4e2f73309d53390894a6b2338810da3f0d103e33717f00caddc108323574de85c6887720561ad0c9946bc510bd3954ad4d264461fb0d2dea03b815969e1b2bbeb995d30f774fa49411323d20ea4f4f1652161a104ad60c9b35ef38783a9f951bd969e107846affc11754708b694168ab9922ae691abdea5ac8f12f90a1a147b5ac63088f4c3de32e81d38e79a93612d9f91286d17dc13dcabf49975e2a37743d997ebc56d11b71c2e430890eb9fb7c7d3b1411153db07129358c9ebfd849d1a12de7ff39ec458b616a3e6885bee7114f7a0a98b996681afa7f3a7ea25fc6d9f2b48af7c5d8c8db0d55892bb64461752f932838a60cc9aa8717f4308e6074996b7b71f077a1fd9d8353af5c086aebed16b70ca941047448572c947a8308b479f74524a74c384d926e4be36e8068bc635df62eca6b343a7a210d0d33c3b4af4a7abbc05fe1e9bb5f05d813c4b345f87d92731a555fdc02239e64e699a0452f86cf48897ca897335ce11e771a7023596868e32fac0dc1fe2d940e1f4f616ac0ebbe2a3d09afe81eb7d39dc4f01db8fc61036a0fe35ae395adcf5bc2a3284d5fa887014dcb6f05249f5e12a4844fd2767d414108037905d11e86a5a9d3b03cbe3094e9468d3fb3c1a20738c08877269a69147e1f79d21604dcfb2ca75a44e38aa87cf8f3f56f639c8501d336f2e72a8748669520898e9f4eab7b0f918e10b9fc35a024f4d0578c0e46463cbf360606fa47ade409b99372d699342f4c7e3c807a133ee3be1c92422cf2f0e5492136e815061041142ad77d8e80c9a778bc04e8a62e550908c55974693603d8670bf9205553bf7f22f3a31aa3f9f3c040048df27710a8e485049abfabb71b51cbbd87126e83cf2403459743b0ca82a0801415ea160bad9d326888db19ea8b86bbcfacb48ac3c4120491b8939d07f0074c444ee02f79917f5ded067d7e0529b0437b71fe6355170e2bcf73774c5976acfbc99b1116384b11930bca6187dac5e662bb9250487f0845244615cb6c1b8f74aad86d9f900ceff74ee731a9dffebc26096a1e6a772680f713d96452a6838856d42998627803ee2f11b5c92aefe23347dca76e056925af421ebdc1084ebff25636eecb4979bae3ef273bf07f263db1ab126cd0ae2efcd17e262a259618e7ebbc227d2834ccd1106eecbdfd16dd9ae0591ed64166f06c1bb101ca18eda5f2ebb513cbbee577b5e3bb8ae3f3a1022a5e47e08a06b8fc708a772284c84a005818061688fe45ff37d6fa24b4f99587fc5e9a1208b3edf4d060d00cfc0f918b739604150598b74b981255a70d772a67f23f51c34212958b45a0352537c964c421601b62787e6eb7307b99a9d6eefd0286f927fb25f22e7e9eaf951e30310e4606c228e2f5c3df3eea02457bb4777af8546fb61bb1434221d998840f5caab9c8ada0b5a094dd9129eea5421c1320ae7a666b56c960be0dd4c1eddc1dd1def16e2a0ffc68a449be9d160b00ca35599e7ad7cd1afdae000cbc76dea82ae0eb79a34fa9a3c73bd9f1eca8731aea913ca7d138958a32c09c1c521df6a228ff689e68fdc639c190119604c98a1845806a317af901568ec8dc47593915f11bd5a5860f93500e39351520da5f095ec6557f54e0d5628fe9cf1a20d52c426c021f0968bcefd07ac634d7e6e02d45eb6afa85d28b307f5d2e3f2cd6d744fb4421f2833d7149f60d11dcbb89ee41fb333bc14037365be840e59e8a8125337b5b0e7fe46c0ba668aaf4f86c425b774b92962238e74504c1aa28c900313f46f4a305eabcd9e897a673272f5abe83d4d8d9115470bda3725f442ec9d6710973f9bc178d1f105079da9461b9caae4bacaee5a859dbfb43ce7c43d8779a8813ecc3ae11fdba29cb4c24bb0e770eb1d4e5c23d9a51a3cc86c7d41b35312fc5c943f96505f0e7da79e615a61755ed4526892b42ce1e80b5b027537bf53f0b536d4bbc0b1eb2f81535a276e50897a2baf3bbfd981468b91fccfbec6cec8bdc988f00235015d6ce1db45302f8e286e96e26e4f64ef5534ab8a55a9ffe215f896d7ae7bffd1315122998316a3bb389bfa1146d940d7e2718edb570f12cdcc57377f8ca2378023f10e9f89b3f0a2c44497c8a7b705786220397dce0083335027a9ce9839f60234a05bd730e143866824a0e9b7672adaa64b679dfdd86c8e54fb2df83438c202d23c1a987db7a304a2d504e5c4573592c119fcda1ccfe5a07d5643c4a9c0633029b04e14de53677bf90dc7badde802e588fdca2b9081ba20f4712e662c12adb263f5e4fd893704c5f229914cd8f37bdc3f9409e617507850604f2f59d390fe61356ec3a15573f75c899e017e73b010f13e7da632944c0fd82c0306520c0294f1cc2bdbaa1bb156d612fae11081c85317b706a2fa61a101f2d4da6ef66e293ea2b08dfba194136733553ec65648fc7842fa0a29d44f7d1f4c157af7b29bd02d71fc121aee6a1fcb2dfd17bc1c8f305fdd81c168809a74bb54ea5869b1a41f19d1386af604cbb138efe8dda480060758e274bdf502d2bcf9b5210e31798b08adc06adec496d6a730820969cfbf60ab07a2a8f7cfcfcf2020d4cac60d127fefafe06c39f25af1748848c37d1eabbd6a84a9a735afce06a5922e8a80af1bfc7eb5f213dbb816f4ac87aa15aef8541b1abe3fb4d11d8b0b082989a0fff41ad9bdb2c1e41cbe348a7f3d5e2408d19b26817183d1f6d3b51f27a915274efd9598ff18a1568510b7bb366f4387eea8fd2b20fdd95fb6a612958b5c25262c32ab3eed75c08521336bddf41556b79cee9b90b0c1cb4d36245c25a7f8b248567fb4248313d2d0893b893b14eaf3aed6820ae987b88da0cba5dad3c5b267c9012405514767b01540a25e982ae7e1c98d06b14cc56241ab9b09543440957bfbeb9c384a74b651744fc2b7ca4e19a45031fc838edb3805964d6533a4a5583ac57d9a9f6e6da65031f337363365bc9b5fd48a47eea62400d67f2ea62958d6be5aaecac89816a750694411d68a42334efcf85a8c9a7be83a1bfafb695f018b712b2467ea0ee670a007512aa7d8366d1a3d2b42e79b1d4da40b35516129b8c702ad81a7f98ff65fa182637cd5a4109ce830689c683abee5c84210eaf1765dc8cb5a37f14c8b6b5992d3c9778d5cb3ab0bfe4b296e2ed90ed19619b8b353c1043b40e03b568a049a417276cb455cc5d461db37b0b4f6b34f1bb429a76968726205617095e1d39b92d09dae1c6d2e4114c5439c81baa28594cc0ab76e7f32c25c4f780c9e9d6e46a5a0a23d3bedfe1b14bff3eec36492bb9329f56ddbf7f5e1f122838e96dcfe98c4613a1149cf273a308c777146d7f4be2160aac12980d97661fad18cf682b7c5e242b74aaa132494d280ca444d5d2a99cd2bd426ff82d443e2b44b8441733bd450d29b8403a3843d4a77b6c70539d8965e57af369d6f32feab13450f3fa985aed18142569f4ef08c2a1947dcb6e99b5ac52cdd5876c50f02bd6afd62fc810a755110f47bd52a43c690f658374e9f7c2bc4285c641c7116a4ccd2c94f684cbeb7f2a17a29f16b646ebe94c4b2e2c4bc375cd7b002111dd55c4d212e9360cec88c188098ba052f475e7cb4a6e7200d33425128781eaf3d355ad53a1b998c6b7738252010fc33b3e282beee7dc668308b10bf602c3df7d350d3da0502cdcaaa7208ef32b3d056c6314e54e7dae918489566f31f7dabe318e0b9dd84addda1189d383a11d52417a894df6ce25f92e97d2086495b8c9acdd9f312fff2aa2524d2e11438d0f7226bcc9aed34857296ce6dd82b82f1d086ac24d3b9e51ec3c767a89e0e0d10fdee6a4513d6ec8f9e2d416c8b87b0c1deaf66702ef14b11f42f9754ae688c220151e7e27c0331111bf9346db0f4a36d000ac49d03c561a45e23383a0b61d2717cf331edb43a227be4cc3ae2dd0999e07593a95e62cb170d4e11787ca9032a411b76e488a5eb5703a63e3c43341cd111141c3353d6c634422e63a8ee3a948e62aaa17be5319a2c4b81597c87a78dd744742127d8f4c942e30a6884a7c40c05a1ceb38f341d5107f31308f3985d72707ee4cc450aeb79b3122d18ab3a811ca3226dbf8986be11183f7bd4bcfc17db4b68fe9a92cc4921fe17aa0352f5778718601a871c9a11ac0eac37adf26c0e380d9e4d4d4c1441bcd52438332f3ec1bce2c1dbda7ce884258ecbf26f6e40029d770ebbe895ac8ce51007d38939c48cf3ed31be5e75237314f6570dec86f57b27a19ad986e3070688999218f5ef741abdb302a72ede4e7a6441460b73289ee24090a357e7752cf5820dc8e949ba37881518729e2a51ec1246cd16a5566177add7278a5621052e6a7690f43d0603332cc618e1cc1f8149c8e2b77a892261a86c37bbc1586b3e8e0c6a77847d3b94d32fbe3e614b8a5528c397ee0565c1d305c4679583c7a2273a4263fd7c0e4c0c3cd1593d70f1645829fddd22d3b28fe608eba622b2dd67dc8282192da3762413ba678ab7f0908dffa0610ac0133c5f7bdfe3469934c78bcb4177d2c1fc618bbac6c2ede6a05c83ee4f9ca0f735c449b31ebaf60e184880a7ce6053dbe5c6abf673b02bc2213ecf7b788d4fab17371a424493bb49447855cfb413af131de52bd75a50b706d0602afc4587fbcbe9da6daf807c3efc632bb8fbc8a3ccadaf73b827542745fa828bd99e6ae097936294db584bb7eefa8dd7b63144064f7114041a88e69d6e9c6053751ef135a8f6549527e22bfc0580a02a7dd72e9eb6b6a6e73b3f6ec2690251c32a5e4b55b022f9cc73fd585424afedcd1ffbf7e46d2a8e3a86b52a937a6291abff8ffde1de3add8b76c0a6f372e2b921d601c5f3128e5851706eb60ae7b2820e0459978a083b67d71ecd1f963b5cc7eedf8334fe85839f968fba857a2319f27b0a430b6ed3d09e7f91bfd70cbd9677656b8b31b140f215fd20ca25c0ae20d0be867f7f893f3fd8631d41e77ce901edbcd29df2ae3e3d61869ee4163105d12006b141b5277c0afb385b10c30f42eded577b0e99fcdafb69648bc81c015daf22d79b8879e27e7000430adcd96d6f7c67fcf386a473752668e64c09b2f8010a30475cfbf8a76a0346f7df43a3eba83f47f139060103130b1a484e7814623d85413be6b6d4ca7746460f0466a5068d54dc9378ec2e46cda7d08deb8a254260e2701edcd7cedeaae1c11de85b2fd1e5dab42fa36e547682937ff684364921b513f1f570a240fd09cbc6fdd1ffb9183668427b376483f723438dee5cc5a6eb961a12eadf23a07b9fefd2e17ee0d74db1ef80caa7745b9c9f7685fec9b02e5ebb13b2f668953cf91fefe0b441ff07a2f2938f468bc7efd380bef43a030e5fdc41a71118eac608ef4b794efe03a23dd034f13156c02f2762e6e8772b11c7dcf8ddff32b942a6404366c746c10e3065f1f7932e240446c85c3f8ee5aab85b7727506fb03f113eb05dac7306c758fb6565545232934cfe1a99a5fc63945a4b6d1a652d02a5f2b3ca600b10335fa312440e1314c0d0ec80ce8a5d39733ebf716b76e6e010fab721321f8c4cb709dc6ee730944453978383e604695b098845acc161c28fe2a8338a9a5abae29f5d98d6af2ad0372b92ca7b779ce0ee3a79adc1cb4262eb52dabefef57a8a4ff07ffd5d517eb5caadc84ce32d254ba4b746d19d19b89a5311192d39b9a603bba160da80fda0469b41c2255ac4d0a46402a2844225ffd25392f46658280ce7b17e40eefb529673a2b3d8f6e25757e9a445e44c7a7149bece401de74823933559559239322e9363220d322cea2ddba2f6d5610fe883885986d15c53cfddb0f8bccedaee3a4492f2ac1be55d6f0b2f1e7af5f4caff10177904f2ba1a14949b45d15d45e07b4b3c206ed751f86b5f37d70a24a4d8a7dc389aaf71839769f1f11e18063e3bc10c490bc546d8b35242a93ec4d6b61cacee4f1d4b01800f7c3137ebc9ac731f7b4d6375c01a874f29000c1b3f4727b65c77a2d51051bfcdece5c62826292caa2da6ec16b9974d2eb7fd3c2c20d1863db12ef1440be09c696e6067fa41ad890ee8388c0290186e494cbc202e7667d19b56353cece99092b1d93eed7d26456f285906aa196059ebbbc157fbde72b8acab6be8efce28d2ccb3b61db9903623cc781638310a16f00286bdea868004a462fa0f56043371e26b39e1d54a4f3e8d8a84d975ae267f7e0b886137b4969b4ae68008ac9462d3b1ab6aefcc6dfd4c6d8c49baf866c8ceaffba9af800d551cd8ebb6fb61dc79344231508ea598b14f2b92a32f4ecfc2e1ded34505db040216fdd1307594fb8f07d225265caca14dccb262c43230defa44d79efbf96195b8852817b9c2a1a0cee7b065a720651f4d30a03b23445d588a657ec81881b38a6ca7c96ae7d30a228eda72f8f278929640191de8b4c95a163f7b35d9fc5f38dd11499e2f3f0484fee4d4e2e67e80ed738c79c531bb034d0e3f7703ae1cd93d0334f8cce0e6fd7bbeeb9cd1a4ba16824f4df329914baf49fe4ae2e518d85cd88bc2a4d7511486305611aa901d1333f199a38fc9c772c5b6dde72d9d9ef90dbe2a7ff20cb9685c2b30ef80c066995da220811544bd79b867d6a45c5f9d5f81246ee7bd867bae77ce1f1a5fd1347a12ac6258ea35211b6ba1a86831915843d88896e58f458f0d5765917c35e035fed90d06219d345c5ec7d3a0ae95883cede928acb380f8ef8b4b6859ef9652abcbb767e6e79b2dd22e5978eed3edd65fc15f583b875d14e2dc2f2a0d8543c03e599fcafefc67dbe7ab22b856e4e31201c5375c3b33927afe8894adefadbb90a284cbaf5f51b1acad87234b1b54a7d39eab320c9a28687261383db782c01572088b914ab44d993bfdc7273e34954b1bbf0dbc661d1c4081b3e81da92ddfcc52a05e0e97cb23e1404ff3331f83623c8f4c394b5d49037bb8cf64b6414d60779217e540739dd851a21e60d671a6dba94845f42487c32ec098a9c4c0c198198431b389bd1a4d6c9f88d6fbb6beb8c25a7f86151da3048fb29ce506076f3b7339701f60ddbcde529f2adcdebd2bf02940c1a9a378e0488c29a0ac38a17a9118bc5165cea4c3361c2b7edc485fb90f788d1b4ecf249b38701ce1ef0472003d9dba70bcbbc1e5599b61380fae8aa7c48f7dc2c543713ffc9a72a801e1a77f9f37c810cf8a31e0bb5eb4cdb46f2fc5fca97133ad03ab9cf53883b270a01260c7c534a0e20cd40e05e747fb3bdc07b3cfc50b3ceac18f059ef4f65565f447208335fb828df7cb07583a984136302cd3baf3b3d9f9177ef97f584b0daab7f0493d2577326d35e5c2e4f1092a1339918cbdbfcb5b1dda82c318103401d4a9e8fc321815909daf60bcb32e37020e105d8b9bc3aa31900cd3459046ab97eb228675846b691180e9f207b3ae8c1bc03ba74ac6509f094c0f38b729ef60c4c7b50851903cc56108c762e6d29f106ad148cfef47e8479947c29adc1aa4b32cf6e3574bba10c0b05616e878eee4c82e3229ca0d438bffebad485cacee4ed2a22cd64971813efb1038aaf3a42fc9a5721f69b7bb52a6ce9ea6e3e58b180be065509ab930ac979932e59d3453f983dff90e45f917cd74501a646319fd22c952f3152b077d56558401f0bf595db464070ab32553b095f4421524c20568df7ac803a3d299b3dab568d0b68d795eb7b68b11c333b381a2838bd9398fe371f08d48f2ded24e60e02654f18b33a4cd6eeb86b9fafe856f33753ca1cc6756dc4f843e03039dfde879a76b715e0ee169afa10d37a8062aece61391764ffc6d4dc6ddcb56f35880bb13c705625c616a97b05678348ce1d52718bb1d8521cff5a3d2ce5b37f7c190dc478622826a0882f49d8c0fd3be124ef75a7a107778ff66b5be2b66c0b64c2084809ede3070dbc7e5de51ff90466ae52b47a293b4cff6f0cb064b6dde4e00650a68b154129426faa9a237e4bf88eb59b094786cf49a96fdc54cf6c819e1b67e2b0d687070f1bd148d0b2faf46659e6db194bfdd5d037aea060737952bc30026f8547737d057bb63c3cfdbcbdafcf387bcb4fc35f3477a87e3ccbaf160e2d20c48a71df9e305d73a39971d2c9a4bd7407a5ddee537fa604400fd37215765e44250f2105af234b853c647b3463939121612eb301cea282f0c1d679ae8902417e66c9f1f5fb1bbf10b5716793e28145726e9198d7457af95c327f336967b14ad14fd25fa0fe0ada5d6553e357275b59357fc2213e1faf714a22eee3d5d3d502838fcde32e542e73f204baf6916a3af968db423019f558a87c104c514bd8f164d03d3deba7e81d29d896aae409cad919a995cc8717b7a078c623bd3af80c056dc1716d04353903644e9c312415bd756683697eb1ba4fea32c710d0f0129ae756984b52611993255a0912167ac123d1a2c9b10380a309d7f3b067b628e9da5085d98b90b0cd852d54cf1e2971b4c37d511fbd55ca08e2b56ee7fb91386192555f1757dde458601ce287c5e5b611ff5fb58751b3eb8335a8b5cde2fd2873522cea0e9bf6f5c5560ca0091a58ee20042ac02237bf01843886e4439d859a785362913c0cead1e4691f47e5ac7ec132d0c7136a9487fb0c6cf292b07e5515eb2ae942d4aaef2dfc7f29b08f57557514cdeac066d9eea594a5c5388e8f1064dcf19fe4be16d57b0d411f5962d5ee0c6521d26c8c6fe86327b03254322abdba93545fd5e401b3e53190159193393db9909fa9676e06ab64c9e48ae9981d2e69de2dd98343508eb30b6e21d7303d99b13772c5e79df4f97c1bbc6fd5e3c84bd65f35b2defc06148f58032d5aa07d8cc37953bb5f5d2aabea56e1b0b161eed95deafbb48ef9e8b233d5cb164f1b6eb4908f591b45bc4d4385a161cf46bc1b287369a5eecdfcfd140b62e0188576c886eecbe7191a7406798f0fb4bfa0c7182c135ef595ef570294f7aec71396e7b28ab67accf1c37de37ebc942bed502f53651a61fc62a1dcfc29d1ce5e11aa2dd7e1659029917e203cc816abc533dca943664bfe41e3d298abf64dc30d0bd1ec3ca032b7d27b8bf71a2e76ccd0c4a313642b6aad073167b8b133ce76790a7414fcd29c4f31df7e37573a174b7c889dd737f94b684a8b25d8972355897802e3d9093c471054ebfe17ab81c9b7c3ba9691693fe99c34802330498b1ed8fd2602a9d7085929301c5121009e4b9187a06c767ef9aceab2202d20926e03c1ef01e3862f91f2e868c1e148e0f7dc7297989c352cd6e56879888e7e21c0948f5229075542292ff5d8f4d6bf02b27e289f82bc3934ec7bcf5d4ce5d7aa9dbf2f5f21f44b7c70aa59847e1db36ccf30b8a33fa13c5e388ff5b92db2fc5d6da62fb51a65e37ad91961d99c8583a8172b9d247352118cee44b22465bef9865665a47e132192686d14d21ba0886af62d7f0eb51f413ff2bd98316a356183f58208a416185c7baccbc02f141efff3fb4a95e8d3b2695a0f0690c232d8b39605b46885fb305bc541a04645fb6f733b27d7950a233599ced31ad97e8d3297094dba4abd6f295be8a9589ac33d6f04a426390f6e6cd70aec289a6d1ef3264c887280ad42a8103c52bb2708e2a6917efb3fd9145bd1729c2c9fa67f01aba05ab47c56441cdf0816a0b76cabc81cc9f6bae4de63668f12ae669284b5aeca54be6780354b726e0a7bff238cb5cb4c216fcf0f507f40d3679c0acbaef83dd4b5b0db2a9e52c3a6048f17c79c4a7abafdff1d3f955b5da5e0816d44f817b705f484c771f1bac29428973b30874c1236177adc709f0a6b2d32745835162f5ed9ce69f36f156031e40b2e26c32addc2ceb297648d3fc271a548b9bf788bff4b2023cab820c4a4ee8f201bbb92dcd070b78863668016c24160c2c053dadb24001af4042a1e5124603307507505dd11a39d879137103f9972ad0f6d79ea24cc16610e1c9dd1984cda871a826ce5032975f4592fbd0f5263322cce7e33fdfb2d490fb4e80b7d17de89ad1558b7b9d3f4bd40213cc2af89ca9145e8b344d1bf504bf6256fae4e8c478adb09dc052add4308658eccc8e68ae4f8012d05f472b4c1c625a39319bca758748b08d4989195c225dcb4557ffb9dbb42cc431f4ecfdb0adf7e327cd5218b56b33723fde2d94ad2036e9a94304bc121f6c1845a1327d89a6f55bb9ca81eb91e07cd0f43871c3ac1f1e37bd2755613ed7b3a3ec11a3eb8fff749ab22f92446f62f85152339e3e373c4e4ad9b657f5e665676790ca0bf8e005767aedd4269d107d4f11e6b4bc7a2e4217c1c3cc2e298e450d010fd622c47e2cd7880e64b2e6b2e6fdf28958ca1ae65967871544bd1afd71c06b4b39318d5a076091a1266627ad1b40f0ceb66234377758d63f8c56e66c0af644ead06b4e987bde957467e75938f14040e31fe264d2cc1f55a3fce3ce86a68196d2a06336102c14d0cc892fc871d6f4219b29228092e58a02047d8debf48ba1442ea38aceb82605e8bfa7460c49af4960e0528ae6d904bb6c6379fef10cb1d1bc6e867054acf978041ce99becefb219322efa15c26a14170452119318cb1073b15b978fd05c40a5001560edf21df4aac16a534da5b52c672bb3326879104eb32db6e815036dc9e43a1d4144af33f09e71ca3cd855c325dbfd0f9e724f144d2c396c83b3300a1bbf691d33a4269b796f80484ff397ef3704d677718224f0eccd23a454a584ad7563bcd916c624a6d9fac09bac86d726aa8c5f4c6c45de2836d6d88f69cecc73ec17c882e29c728b3078316569eaf77c8ec57e85b52ee30cd6212133a17ca3a4e87bcfd7507598616214d0e2b188f173ee86cce1a411c0d2ff80e1ead326474358dbf412f8e540c01aa91173f752e069ecc268a7427e0935db3acd27fb7bc097e2b2c58d5a6acdd1fb4c10ef703b9687c4c6f9deddc9c9d3ef5ba1d9a87529d0a7387bc569c6c642913c425fa7538cb83e2a689d5caeac55b325d3597547ef6c8dc122a2a6d000c344eec023e56786b482a73477d0fd36701f0eddd08298e43913144c3f7b879d09887612efec260abd0d45688e61558f0288cbddd8b5774e48466f164d5e522b544131414d6f2fe1a75dc3f898674bca43b786b3eebb0e2ac53ea6336d2d0496f23399c133eef87007a5128b3f86d3ff94bdd1a0143b28d4b72e7b02b2022147764b03a20a11d5fb29aa2ab37f2917d0b42ef10170b5f8614bc6e4decda4186dfafba37a2646970667358221220fa8bcc9f6bff673a0548a53d6a988310387a734fe0d2ad8552fb18a6e118910964736f6c63430008170033223d042d480e6b8aa96ee92c5dc053d7cbac9eeb12b25c7879ef678bc1b67cee0411c9a50fe4fd731c874ea1c7f6411e6ea6037266e687d27cc15452527a38a61c366fb513bd7061f1ffe1b01679ef6935509bdebb0f6a2359ed3c2c55167a8c06c41ae91c52f2b27f7bf76e73f6299ce59f6f67c03b5c1d15ee23ccbace2cf12fad2a9783fc2ba49001eacd3a33e34c302753636d3c46357636dae6c8b2024b19c6002888dcd3e33699c10634a806d2aae224c3d7e59cec5a9b8719b066d2640c3bc3c927533404b7618b19082e24eb2ca334e7bf9dceb958bd3551e9fe7f57270e9bcc58594f6192a2b99d2846f622de39b5937b2a7323cc45e25fcb2093d01e7d1a66aaffd026340c02261fd998650c044a8b0c7fd711e04213a1cd2cd3512424444f3b3621df8c36b258f3554a9c5e2a21a5331717c8aba346c7ac63c97616e036c1a88f983c82227849b01847266a1175919ac332c27799549ce18d36ee0b0ca3b0483c8e42c91944242fc36b40ca910518f9d85a25be8e4a7ef43663ad110cf5e0d819a05a811f7a0c166628530ba6f6d353e8e6a433c064d6fadf060c19bce756e115841dd94ff44541d5ad78130187d67f3c560c2a590bd0937657090dd7a106857421eb01a5bfc3823aa5eb877b1e10e8bdf45de359928b28d1ca3927b6c7af8f5185344561cdfc3a5b049d381fde19a6c1d178c748b30bc5b89cb315ea7c4084328d608b151e9b174a74fb47f84cd5cc4c9093f63d23d8f66704010d1c16cf84a74fbaaec21f0190d887251440559389739fa03a9c82722c6a538014faebe5560369ec0b8807a88ecfa006f7f9795caf1bfcfe261555534cf4e78d0c962615261ca9c1f65cd755e00bc013abf1533a12e81b80b32fc41b0d1fa86d2792793df783c78305175c60e000c53fd96ee07ceb78e470a6c64a1b477c55342096d8bc28b6870f36fc685e6509823ed594339011cb6dde0e8f8d7cc1cc582e109542c42e7879d5f2509059905ece1bd8860e7c820343aa1b30461df91eae951eea6862ae37a2a4392c5801737849adb507f0a3137699241517a3f1ebbb3a48093d3e06748b6704617f4cffeeab1a9c5b788923f7fe09a498749dd9ac9f32532e5f917fa4593965b59fbd36e7644390ba01391b8379a4a204c1c29fd1d17cde2a0dccfc2e6d40de5187062a63a944a907d0d7bb6eb30533a3454057778ed3af1b8f89159c77020c893f3cb7a2a4cc3085dafdab413391192963d2d6f8a71b7d0f073ae26eab905914ac7acdb75527b816507bf5874f1b62510b138763c6981b2efe76868b9464962feb51deeca8613af2840c9a8ddc525770423f41089edc6b246bb276850c226ed5ae364e91f840b7be0a963dde7ea0a2bcb2f32ea644064b2f6a7a99b512977e15a4a74d0f72d1eba14b0c87e9b647421aaed72562744c141a465001f19b05dc38a491b248c97ec7920c03da29e69d805df6dae9ad29c6b80ed2c6a0818f6e04bd3aa8e1a17b0d67c6815feeb8bfe9b3a575bde437ab71141cb929c4998d91a32baae52fc164831ff6bd12474cd8c91189b69f1e8cdb71640c5be902277c48337d1db6b1fb81c89e8689cb10b7ee6af8b9fc5975a730f6eb2dd837a46f2ba2ee8ea9442a9eebd87ed57f594f044c7860b39595eae6ce4d0e119bc8b722e52ff60236302b2e6f4a139f15e63aa0641ae765f3e71c32fb759d25214f618153620b583fbd2abc2eef9a26789f3b5296e90551877a37d362dc95013c611347b3d133ed9045be2c36f8689a0120c4078d12d8cd28c006bc61dda22f0a9559eca7cc75db51c369b05e74c952d5a8ae39b06ed01c8698f4d74d58dc0fee282026bc113cc251580beab7bfbddf2209056fce08c4e356b1a06f1bc9440d019ab06a355bdbfa51b1e5b89fa8e1a59cc3ed78efdebf14cccd425778a0f124c852ffd0bec3eb73101770bf74c9166c2c319e247e5c5b8249ead357af4312127605c73a5a074f7eb1b6d2c28c7c6b2ab38d9c3b722b38d1e1c7e336198f251834bb051ac66b2bf5d94722271108ff7809e00c8ba5e6d4786d99e65953e3d828358bc8e9b03c31481e07909d86cc8386494aa0c6b1fddb6e83911200d2d5bf21309d93ca7e97b55d43c9396f92716ff1ad99b73dc929c566de6c6c721bd04808666e4182c159d4cfd305e1f6f5cfe4ce9243ab5388c2a5a0ab74b600e4bd5e28cfb007611bda022f417d399841a00e543b14076672113b21e9bdf4942eb3fc1281dff49430dbc9d0748814312f5356a1024539516ae19e8b6eb6379421cc83243dc2b640abc1728422276ba4ad24cab39fc7d1ef6cf3d82fe82c9f89efaa7b005cff4d9542e3250c36bf32561e274f8fa928dd3a8d11f4f76c36a4cdeb5e6420b886f89543b54f0403091d51cd88895fbd55aea86d19db8b89cfd55255f8030c0aa8002fb14fb9b4feda737c210d4289d62a014e4bdbf708ad21b53ef62d9625e79b70d1ee02eb3f6c25bfaa7b9a4e1566b0fa70c6c0ca072191897838a3601f5834e4b1f3c4c2be7d246854a9826812062ce203a9f7818ab884a0306b3622121c37e25e942cedbf3bdbd4a53cf3cb4628a36081e1824aa583add4bafc91a62afb6907df29510dce8c6d157e612b5e727779e8b3e7fd963468244becb827b928e70c1e2ea6a01e47e3cf63e6bbf4fb480a106ae94bf1b7711fa98c010b9e5b0d6670f5a24582a747e1d1ae1e0e8da63d7d202210d96dd5078fa58eccd43e361fe26476a17c1dda8d2d1b630ccd263ecd5644529afc3e2973f6961ff3f8712627464f05a8ebb85e8e465599614ced7bec41fcda74ec9f51ae39c392672bc7242ab9a6d1c669a478ceb584e3bc6e1635e3202ec53cbb6f3cc42bbfd7659607c00dd63e17922e2e955c38d47347fd269336d27cb9b9c7a3218c3808507bbc994d19593a3350d5604598530c93362e2836f90f7daa675f73b40bc04d67b0625e3d1682034112be41166846a800dec3f04dc45f7878bd2c5493e443f44efc5c08af0828e223ee37c2d4dfa133c8df747c3ddd415da67e911f2f5cb609a58df64bd0127bfd549e5e8dcf4b22291715f2ad5668cd6c711c2a39c3ffebe93243df40b00dc2c61595d602f4f7b03af6a919263956b5943cb3f5f890bde70de7336233871273f3665d807e7209eb64729ea54ea6c825cd711a8f188a7c8dbfd0626e74a40bfda4e183722faf414237fa9ed12319fb5ee54d43ab955e00453801982db97016fea2e34746afb310849831a045eaa63da4744f1c2b576a49f12273f48ce5d311264fa5d1e4446967b2178473890cc9252ed102c5db6c56368a0987c6ffbb7519546a1616aca8f207e875ebf37977f96c1dfa32ddf16d7eaded9047ab15142f1953bcaad2e145cb2a759cdd65eb7cf493b281b71b0faa6010e30a38b51275192fdb1ef3113503a9db688b32a0b79f3a8125d7967b3962373fb886332a135f7706d774b685f236c190a046ec7fc6147a84260794c543230c4d3f90cc091d0e602cb5b76f44713c49cc24cb3e1715ba081787296b94dbe25ab57742ebf6553df405159d91bd6a0a9c639b0cc27cc39dae457f45225c4bb554264af8e229a52524115001b9e8d8b1463cd86a016c3610f87fc2a10f63bdfcc00cfa99353a4c1a52125537cf6072615205c38045b8ad31d155bdd8acf80c7dc627a7506e642a177c2e83916c6303325ed9513361098830271102ac5dbf285e2645915eeda77a56931ce67dd1edcaac1b03358eb6b2ad3780bd1cd201b91d4bb2e603e01279351fd10f6023308217b2764eb38cf098e1c6c012990e188af20730587292407996a3931169abb3cf5bec07393ad7585ceee78751fbf5ff424901737ab76642aa52bc9f296b6c4e7849d8a1dc8fac95f48fdb8c72807d23a5f2c03978154fd39761dc221ea1e1dab146320bebfe3a0183861132ea13acf7957f9a66f2e61d3b12cea7f31255c43af69be48744c759de67f363030b809ea5be5de707545d1f29dbfcd272110b2f7ac7d7b3f94893762fca13700b74cec691bc57d216ba04e992bd0dc9470652c5b2ba7b972dd68bf8c271556b57ad4521c067a072d75ee09268562cea9d1e6db4b3e0185f2add0d49d60e16168c2f3ea91e2cb05678f2c9d9abe232b3400a96b6eed42e7041c98baa152253971225378ac4cd9589c80cea28c06b5706782650ef83382c54ccfabafaec8096c519ab5670c7d4dea2535c64db2b7dfcb5531664dbfaf0f45d6ce2782683f87e6c9e9b7176f08511ac1663869adf9337eef0212ae8907761700bdea4b480f20f788dd08ca4126dcf4ea462e890f3026344760e50a74cf13a9f5c3eac33a38c6f9e8d3c2638bee309a4180afd6097c52766e41377037809e690222f9afca6e1ee39ba95846bbe912379a938f6ffcb493f5cbc2f87ae4a5a564f795b6078c1e1511c63404183176bfc6f03ec587766d8868cec078706f23a72811efcac3f7cd3a6cc38973d57adbf99bb615d8e364d4c50c9352f0458a92e188177e4bce9f874dc537aad6cd91252f12b862fd0a167a95e41c90207f0a72e420364482932d9117f37989fd77ff9721943ed566b65624a02ca8a10cee567471a2b01cfa286f3095713ffe5855c06f17158e33e9ebfdc1c792a88239ea34b3e8a5d1d26599fcf453537fb16a91f9520317a01c7de1bb5a768d72509b3a1bb0c0be55876c4b91957b7e86412654bf272b7b9c52f2217e9713c7dcc2cea70065cb1bf0b68c86a3592a5134384be8b10de004c31233b783577694dc613aa1864f9d5017a46cb107be441f821a85315b79f39968d6407f343a2c619980005f278bae49a9a15a54132c50388e69f4211ceddee99195f07736b502fadee0302a786d79c25a2be297edd39eaee413dc553146ff7d83bbbb8bc71447b66052eaf36a4dae40401cfa571b55ad8b5fbced37e67860085bc6afc5412d809ce8a166d04b67debdf8e674bd6074bf67031d3b4c558647dc4a3c5443eba23086683232f97fa7f391323e066175feb3572aed60c343c3e3c11ed309c00ffa29cdd37209fbbee38f2dda9c1984658fa4ab5794a3a5fd19da7613c554cee69db7a51d50271f86b9bc2d6ec259de0541bad8d207075dd0547401a7de8a0b1daa2667e6427df2b01c10bf56b288b324ac4cef462dfefebd92740e7216b15eb1a85b182e30b61eb77f42c4efc0b1513d486de63d1023f3169e5e76c3bbed64b4ca350e9641ff842cd59778fb6c75d197511f3158ecac8fafd21db5fa652725be434580ff921095e6eefdda8f7648172826e435e08a93109b1f040d88ec1b01ce3e2dfa59202746d05612699c335d4031f388561fa2c6b3a4c224df74140c58c5dd7391459182427fdf7ec0b8c5a7003e3ae6c19d8da47804a75d62ba4a1f8ce1835d7eb660dcfad648630a6037241a73af244b1612eb375d852712a10182e1339d176471f24611b2e7aad1a1fba1f1eb3193a87a0261e98dbe77fb30944edc6ef5726acda2df51df9c66f51695783648873bc167bc8199afdcf98a6a39dfc14933634cc2500ba85a4d757b2bb24f2686c8fc2b20d23f68ecc5bbd889d70db8222f9c94eeb2a615fc377bd707e1d297df70f60076d184ea30144439d2a02827ccc4b74d6d5083ff5f9b4474040e1db95e7dd4ac08bc49f0df5e04b1601e531087a66e1a9a009736eb920f83da4d3d81d49a3d16a2718b7af21f590d120ac5775d56e87966717c8dd6f1cf33271c97ced9829c0500a8353d922a4ee36cd2a64e8ef99db06b02b4fe13e06cbc8e9f0fb007f7feb24277fef8ce8403846d681b8b77c7fe85ca42df40a5f7f4555887344c54fdcca240d9e1220c9df8a305f4a6ed0b5fcf3258c26e306f7f4400a8b466a46f73b1bb30628e8f53ae183179a89ea09bcab1abe8c1903a292e81db108e9af23cd1c7249087803195ef86af9d7aef43f671bbe28d505c92b5167e06202018a4b1c482dde448604793a2b6d734c3a59f599b457794f109890a7f2fcb50131c7e510faf117da23344b6e50403670b103e8b1b0fea27f1fb6977c76473f7a1d148b69a5526768ac7032ce91f0e138973b3e4d30745fdf22846c8fc4704252020b4a141726ef713f5eda605ded818ee69d101490d5a8b6079b1bc515838f1ad835d87623adef3b1673ca9735ab72d8fc938e206a524e5820d47a675b313cd4b857527f3e6ddd2b5646e5fd9f206aad5bcfaae6cb0958e6064e79c61f6d53a00688e7f217a0c8579ba3daf9d4df5dec16f013a124413f152383c6f75c1a392e6e1375277f1130c2274d8668773addb783207cf58cf4c0b61fc40e1150f35476075a72e0ee5366fb0655cf4a0497d1f4e068e5df2ad7299205c9dff32c5c83675eedfce89d2270ae3115d2ce98dd7cbe37603bce52504e8022de7321ef7d49d583634074d556fb103ed40b5355a61457e7055b2218fc620e269d005f007d6b2f3e7ba54cd6a2beb190223080a1fd94230f409ab223c5b7940c5e61cdfabe2eb8188f70cac4d7b7cdeed9b964792d7dfb6fc0b228a7270e542a586a34c5b50461b05614cbf3ce228c130522513793ec263f9afa96e23f4e5a25ccf30168e9ef4fd1cb902c95ca8d67a13580dd07994094b221708f8c7d6797107dfa97fd9047fae9cf80f48b206884949b324e4ab03212f3298c48189876961cff7a1fcb4f40c410ceb353cb8ab907a0f6b2821dbf82766ec762967ba2394420b8533e0ab744d5db86e30a3e73a80bf621a2b5d8555b0fc416389d5cf532650c9d9b203b72e7887fbc30ac7978146860ea4aa1ff0d96dca2c65666304cacbb1b84d4afa11231f3a4a3c62a0029a39f5ea31d907a92070494990427e7ca6f8814107581ede64e20dce54fffbc6443cec3ca1cb0054c5142187cd21bcb166b7916737e84151e0282876e43177c3830524e3b6ac2eab243a067de3319f8d0b8b42ba33cadc4f1787f00a8a107c76e563325b43a6646961320196dbfc00c4f22da2ad6e07defcb0c49b161fe87df3cfd5eb9a824fd772a69712e947b3b1cfb21d40b96f280c977d717eb22a136ec5d2830fd84afb5096cef17868a451961bb84672cb182b3ace6be4f9319b65c2ae1e672d5a27b5fdf78973fee79c7bd09c81aee019e150e3d992f5175dd609d7b7468a978428a5bbf291b77f900d1c682cba1bf2c04f3db93c0870db5a439e9ff0f2ac65d19edda31f6bf64e9f827516b3f68e72e6c4ce5c33d2f1d00d4c7c691e5d39dfea1c0eb590de777e5fe64365545646f01879179e76aed29e2392a6df0ac85ea6a285e0d3a1112e8593c23c3e33df5a2086975bbb71f10a74a76f43bcb0035481860c6478f23fe914df449b50e56c4922c6feb5c47ad32b1054c98e31df1659881f884939536961bedeff8cfbb6e12820549855c647dcdf03d05c6a490d5541098d6d83bae7da0112a822e0abcece25020f9c4e3fcfa0d305a923e4fb0d9ef583cb141debfeb931c909ef1d4fdf6eac905a3b3663e889c49eb5920e769bbfe9f9dfc905554300bb2b4285c6a5889b2741f9e528d112bd8a059eaa510cbd9a7458598d27775bcf6d851a0d359ebb81dec011469a48978d7076fca2af28c59792502dd9dfafd8198891ec51eace408f26b164c3f0507f0a41247ba9cc307b4b94b3d3f5d56584e9857ab9a62171fd1a495227511480052b638116e221c76d0f32004f3b18905cc8bb20bfda3f78da0b8f51a93b95f80b84b770b1c52be3e7d00588b0ba9d3e4259080b42c95b31b5414732f83002ed31eaca2531766a09552eb1667a9419192ca335b08d93693e5584abc0feccdb53345bdae7349c42b119570c762f1f5497eaf898e4ba2d378d9d8d20d18d01d38cb6ac78d93961c1ecbfaadd4b0cf999b972ce4900cee9faacdf8298a1f31cefa55f5f930d149b63b7a33e385a688aa8a4ff3ff8d88e501dd7466b4751a02607dc91fd27ebb066b51f8dca8d64dec062d3f8ea6a3e2859d139c17e9f225bce5f60cf5c72fe58b511983c067ecab88071786feb4f6cf83e1b5ac35878e199ea7d2467ea66b53853f7ba20a91bb44a4a5f621404375051cbac31997a3661641e4ce35beb44e3d00fd9b7a3bd47e118fcb21c62281b148dfe4097c147e11227cf6075dbc7987ebce58711ed50e2b6a94c1478db414a834345cb2b5c21cb5252bdf93e4bc24d639e1ebd80550001fa9aa1e7d6abcba326c2b2feade8fd8d90d98245785a60faadbc0c044b2e2e0ac808e16fec60b3b73baedd29acee1a34418a77190ddb42dd8be0f01727d46faa6e2f1efd9704d30f9a969470e4da9840714f25459703bda113aa3c2812d841e053b5c08cfdd2d8d92ef7a0bb685e53d211b7dedfae2ee1a8c3ec8d9ac7e35f291d4793e4bf05115a7eb7bcc164a1f53d80f03cbd30fb82d7807479517b4e29b3da4950b96a023a331e52c721c66f5e2292bb6d910684eb13c86f172f66f59a093f8a002333c8767bd594ceb63e9c6a2c41f32b4847858f72bc734df639c032604ae71ff65afbbdcf42acc7ec195f3a39c2a0f1adf6230de3995bce023cdfc6af1e85d9121f84de4a34b9c7fc4ff920c7617fa977e81dac861e637d8d9e4636487afa55618f35f7455af8321f8d6d50d6e09f9221e154ad381a5b58d1c8771be1f47f3aae8a9769151cd84c1434fabcb9b0ea204dbfbd3e404128c8252d607169ef5305bb12a59e44ac4be9147055a6f200d2547a25e17e027bda4423048f3c6c595d6f83124767da34e0e4b96c26f5c940cbd5f2d0cea7678b80aeed4b0de78259c86a2c207dc0f28fcbe22a1252e5d3c1a9b6c59c30e6d1e3c5efae27acc27e9b7bd23af3dd7963a0aa8361b4df2f24312b6c60fbf4cd948013007113196f6ac1743fa7e5ea98b243de8dcd13c1e74d81754b2b575981673e3d30c65ddad7f120e97aa29818478eb56702759f4b78f822764d40d5e2bdd09263e2b6e6e9ffe9ac935ab67e9db1f40a102118409dc99a623dfe208849634939164215af8831f8dee4c3c0ae36d054691c9c8389211c2ce04645153c868372f37d106c5c4bfba4e2f73309d53390894a6b2338810da3f0d103e33717f00caddc108323574de85c6887720561ad0c9946bc510bd3954ad4d264461fb0d2dea03b815969e1b2bbeb995d30f774fa49411323d20ea4f4f1652161a104ad60c9b35ef38783a9f951bd969e107846affc11754708b694168ab9922ae691abdea5ac8f12f90a1a147b5ac63088f4c3de32e81d38e79a93612d9f91286d17dc13dcabf49975e2a37743d997ebc56d11b71c2e430890eb9fb7c7d3b1411153db07129358c9ebfd849d1a12de7ff39ec458b616a3e6885bee7114f7a0a98b996681afa7f3a7ea25fc6d9f2b48af7c5d8c8db0d55892bb64461752f932838a60cc9aa8717f4308e6074996b7b71f077a1fd9d8353af5c086aebed16b70ca941047448572c947a8308b479f74524a74c384d926e4be36e8068bc635df62eca6b343a7a210d0d33c3b4af4a7abbc05fe1e9bb5f05d813c4b345f87d92731a555fdc02239e64e699a0452f86cf48897ca897335ce11e771a7023596868e32fac0dc1fe2d940e1f4f616ac0ebbe2a3d09afe81eb7d39dc4f01db8fc61036a0fe35ae395adcf5bc2a3284d5fa887014dcb6f05249f5e12a4844fd2767d414108037905d11e86a5a9d3b03cbe3094e9468d3fb3c1a20738c08877269a69147e1f79d21604dcfb2ca75a44e38aa87cf8f3f56f639c8501d336f2e72a8748669520898e9f4eab7b0f918e10b9fc35a024f4d0578c0e46463cbf360606fa47ade409b99372d699342f4c7e3c807a133ee3be1c92422cf2f0e5492136e815061041142ad77d8e80c9a778bc04e8a62e550908c55974693603d8670bf9205553bf7f22f3a31aa3f9f3c040048df27710a8e485049abfabb71b51cbbd87126e83cf2403459743b0ca82a0801415ea160bad9d326888db19ea8b86bbcfacb48ac3c4120491b8939d07f0074c444ee02f79917f5ded067d7e0529b0437b71fe6355170e2bcf73774c5976acfbc99b1116384b11930bca6187dac5e662bb9250487f0845244615cb6c1b8f74aad86d9f900ceff74ee731a9dffebc26096a1e6a772680f713d96452a6838856d42998627803ee2f11b5c92aefe23347dca76e056925af421ebdc1084ebff25636eecb4979bae3ef273bf07f263db1ab126cd0ae2efcd17e262a259618e7ebbc227d2834ccd1106eecbdfd16dd9ae0591ed64166f06c1bb101ca18eda5f2ebb513cbbee577b5e3bb8ae3f3a1022a5e47e08a06b8fc708a772284c84a005818061688fe45ff37d6fa24b4f99587fc5e9a1208b3edf4d060d00cfc0f918b739604150598b74b981255a70d772a67f23f51c34212958b45a0352537c964c421601b62787e6eb7307b99a9d6eefd0286f927fb25f22e7e9eaf951e30310e4606c228e2f5c3df3eea02457bb4777af8546fb61bb1434221d998840f5caab9c8ada0b5a094dd9129eea5421c1320ae7a666b56c960be0dd4c1eddc1dd1def16e2a0ffc68a449be9d160b00ca35599e7ad7cd1afdae000cbc76dea82ae0eb79a34fa9a3c73bd9f1eca8731aea913ca7d138958a32c09c1c521df6a228ff689e68fdc639c190119604c98a1845806a317af901568ec8dc47593915f11bd5a5860f93500e39351520da5f095ec6557f54e0d5628fe9cf1a20d52c426c021f0968bcefd07ac634d7e6e02d45eb6afa85d28b307f5d2e3f2cd6d744fb4421f2833d7149f60d11dcbb89ee41fb333bc14037365be840e59e8a8125337b5b0e7fe46c0ba668aaf4f86c425b774b92962238e74504c1aa28c900313f46f4a305eabcd9e897a673272f5abe83d4d8d9115470bda3725f442ec9d6710973f9bc178d1f105079da9461b9caae4bacaee5a859dbfb43ce7c43d8779a8813ecc3ae11fdba29cb4c24bb0e770eb1d4e5c23d9a51a3cc86c7d41b35312fc5c943f96505f0e7da79e615a61755ed4526892b42ce1e80b5b027537bf53f0b536d4bbc0b1eb2f81535a276e50897a2baf3bbfd981468b91fccfbec6cec8bdc988f00235015d6ce1db45302f8e286e96e26e4f64ef5534ab8a55a9ffe215f896d7ae7bffd1315122998316a3bb389bfa1146d940d7e2718edb570f12cdcc57377f8ca2378023f10e9f89b3f0a2c44497c8a7b705786220397dce0083335027a9ce9839f60234a05bd730e143866824a0e9b7672adaa64b679dfdd86c8e54fb2df83438c202d23c1a987db7a304a2d504e5c4573592c119fcda1ccfe5a07d5643c4a9c0633029b04e14de53677bf90dc7badde802e588fdca2b9081ba20f4712e662c12adb263f5e4fd893704c5f229914cd8f37bdc3f9409e617507850604f2f59d390fe61356ec3a15573f75c899e017e73b010f13e7da632944c0fd82c0306520c0294f1cc2bdbaa1bb156d612fae11081c85317b706a2fa61a101f2d4da6ef66e293ea2b08dfba194136733553ec65648fc7842fa0a29d44f7d1f4c157af7b29bd02d71fc121aee6a1fcb2dfd17bc1c8f305fdd81c168809a74bb54ea5869b1a41f19d1386af604cbb138efe8dda480060758e274bdf502d2bcf9b5210e31798b08adc06adec496d6a730820969cfbf60ab07a2a8f7cfcfcf2020d4cac60d127fefafe06c39f25af1748848c37d1eabbd6a84a9a735afce06a5922e8a80af1bfc7eb5f213dbb816f4ac87aa15aef8541b1abe3fb4d11d8b0b082989a0fff41ad9bdb2c1e41cbe348a7f3d5e2408d19b26817183d1f6d3b51f27a915274efd9598ff18a1568510b7bb366f4387eea8fd2b20fdd95fb6a612958b5c25262c32ab3eed75c08521336bddf41556b79cee9b90b0c1cb4d36245c25a7f8b248567fb4248313d2d0893b893b14eaf3aed6820ae987b88da0cba5dad3c5b267c9012405514767b01540a25e982ae7e1c98d06b14cc56241ab9b09543440957bfbeb9c384a74b651744fc2b7ca4e19a45031fc838edb3805964d6533a4a5583ac57d9a9f6e6da65031f337363365bc9b5fd48a47eea62400d67f2ea62958d6be5aaecac89816a750694411d68a42334efcf85a8c9a7be83a1bfafb695f018b712b2467ea0ee670a007512aa7d8366d1a3d2b42e79b1d4da40b35516129b8c702ad81a7f98ff65fa182637cd5a4109ce830689c683abee5c84210eaf1765dc8cb5a37f14c8b6b5992d3c9778d5cb3ab0bfe4b296e2ed90ed19619b8b353c1043b40e03b568a049a417276cb455cc5d461db37b0b4f6b34f1bb429a76968726205617095e1d39b92d09dae1c6d2e4114c5439c81baa28594cc0ab76e7f32c25c4f780c9e9d6e46a5a0a23d3bedfe1b14bff3eec36492bb9329f56ddbf7f5e1f122838e96dcfe98c4613a1149cf273a308c777146d7f4be2160aac12980d97661fad18cf682b7c5e242b74aaa132494d280ca444d5d2a99cd2bd426ff82d443e2b44b8441733bd450d29b8403a3843d4a77b6c70539d8965e57af369d6f32feab13450f3fa985aed18142569f4ef08c2a1947dcb6e99b5ac52cdd5876c50f02bd6afd62fc810a755110f47bd52a43c690f658374e9f7c2bc4285c641c7116a4ccd2c94f684cbeb7f2a17a29f16b646ebe94c4b2e2c4bc375cd7b002111dd55c4d212e9360cec88c188098ba052f475e7cb4a6e7200d33425128781eaf3d355ad53a1b998c6b7738252010fc33b3e282beee7dc668308b10bf602c3df7d350d3da0502cdcaaa7208ef32b3d056c6314e54e7dae918489566f31f7dabe318e0b9dd84addda1189d383a11d52417a894df6ce25f92e97d2086495b8c9acdd9f312fff2aa2524d2e11438d0f7226bcc9aed34857296ce6dd82b82f1d086ac24d3b9e51ec3c767a89e0e0d10fdee6a4513d6ec8f9e2d416c8b87b0c1deaf66702ef14b11f42f9754ae688c220151e7e27c0331111bf9346db0f4a36d000ac49d03c561a45e23383a0b61d2717cf331edb43a227be4cc3ae2dd0999e07593a95e62cb170d4e11787ca9032a411b76e488a5eb5703a63e3c43341cd111141c3353d6c634422e63a8ee3a948e62aaa17be5319a2c4b81597c87a78dd744742127d8f4c942e30a6884a7c40c05a1ceb38f341d5107f31308f3985d72707ee4cc450aeb79b3122d18ab3a811ca3226dbf8986be11183f7bd4bcfc17db4b68fe9a92cc4921fe17aa0352f5778718601a871c9a11ac0eac37adf26c0e380d9e4d4d4c1441bcd52438332f3ec1bce2c1dbda7ce884258ecbf26f6e40029d770ebbe895ac8ce51007d38939c48cf3ed31be5e75237314f6570dec86f57b27a19ad986e3070688999218f5ef741abdb302a72ede4e7a6441460b73289ee24090a357e7752cf5820dc8e949ba37881518729e2a51ec1246cd16a5566177add7278a5621052e6a7690f43d0603332cc618e1cc1f8149c8e2b77a892261a86c37bbc1586b3e8e0c6a77847d3b94d32fbe3e614b8a5528c397ee0565c1d305c4679583c7a2273a4263fd7c0e4c0c3cd1593d70f1645829fddd22d3b28fe608eba622b2dd67dc8282192da3762413ba678ab7f0908dffa0610ac0133c5f7bdfe3469934c78bcb4177d2c1fc618bbac6c2ede6a05c83ee4f9ca0f735c449b31ebaf60e184880a7ce6053dbe5c6abf673b02bc2213ecf7b788d4fab17371a424493bb49447855cfb413af131de52bd75a50b706d0602afc4587fbcbe9da6daf807c3efc632bb8fbc8a3ccadaf73b827542745fa828bd99e6ae097936294db584bb7eefa8dd7b63144064f7114041a88e69d6e9c6053751ef135a8f6549527e22bfc0580a02a7dd72e9eb6b6a6e73b3f6ec2690251c32a5e4b55b022f9cc73fd585424afedcd1ffbf7e46d2a8e3a86b52a937a6291abff8ffde1de3add8b76c0a6f372e2b921d601c5f3128e5851706eb60ae7b2820e0459978a083b67d71ecd1f963b5cc7eedf8334fe85839f968fba857a2319f27b0a430b6ed3d09e7f91bfd70cbd9677656b8b31b140f215fd20ca25c0ae20d0be867f7f893f3fd8631d41e77ce901edbcd29df2ae3e3d61869ee4163105d12006b141b5277c0afb385b10c30f42eded577b0e99fcdafb69648bc81c015daf22d79b8879e27e7000430adcd96d6f7c67fcf386a473752668e64c09b2f8010a30475cfbf8a76a0346f7df43a3eba83f47f139060103130b1a484e7814623d85413be6b6d4ca7746460f0466a5068d54dc9378ec2e46cda7d08deb8a254260e2701edcd7cedeaae1c11de85b2fd1e5dab42fa36e547682937ff684364921b513f1f570a240fd09cbc6fdd1ffb9183668427b376483f723438dee5cc5a6eb961a12eadf23a07b9fefd2e17ee0d74db1ef80caa7745b9c9f7685fec9b02e5ebb13b2f668953cf91fefe0b441ff07a2f2938f468bc7efd380bef43a030e5fdc41a71118eac608ef4b794efe03a23dd034f13156c02f2762e6e8772b11c7dcf8ddff32b942a6404366c746c10e3065f1f7932e240446c85c3f8ee5aab85b7727506fb03f113eb05dac7306c758fb6565545232934cfe1a99a5fc63945a4b6d1a652d02a5f2b3ca600b10335fa312440e1314c0d0ec80ce8a5d39733ebf716b76e6e010fab721321f8c4cb709dc6ee730944453978383e604695b098845acc161c28fe2a8338a9a5abae29f5d98d6af2ad0372b92ca7b779ce0ee3a79adc1cb4262eb52dabefef57a8a4ff07ffd5d517eb5caadc84ce32d254ba4b746d19d19b89a5311192d39b9a603bba160da80fda0469b41c2255ac4d0a46402a2844225ffd25392f46658280ce7b17e40eefb529673a2b3d8f6e25757e9a445e44c7a7149bece401de74823933559559239322e9363220d322cea2ddba2f6d5610fe883885986d15c53cfddb0f8bccedaee3a4492f2ac1be55d6f0b2f1e7af5f4caff10177904f2ba1a14949b45d15d45e07b4b3c206ed751f86b5f37d70a24a4d8a7dc389aaf71839769f1f11e18063e3bc10c490bc546d8b35242a93ec4d6b61cacee4f1d4b01800f7c3137ebc9ac731f7b4d6375c01a874f29000c1b3f4727b65c77a2d51051bfcdece5c62826292caa2da6ec16b9974d2eb7fd3c2c20d1863db12ef1440be09c696e6067fa41ad890ee8388c0290186e494cbc202e7667d19b56353cece99092b1d93eed7d26456f285906aa196059ebbbc157fbde72b8acab6be8efce28d2ccb3b61db9903623cc781638310a16f00286bdea868004a462fa0f56043371e26b39e1d54a4f3e8d8a84d975ae267f7e0b886137b4969b4ae68008ac9462d3b1ab6aefcc6dfd4c6d8c49baf866c8ceaffba9af800d551cd8ebb6fb61dc79344231508ea598b14f2b92a32f4ecfc2e1ded34505db040216fdd1307594fb8f07d225265caca14dccb262c43230defa44d79efbf96195b8852817b9c2a1a0cee7b065a720651f4d30a03b23445d588a657ec81881b38a6ca7c96ae7d30a228eda72f8f278929640191de8b4c95a163f7b35d9fc5f38dd11499e2f3f0484fee4d4e2e67e80ed738c79c531bb034d0e3f7703ae1cd93d0334f8cce0e6fd7bbeeb9cd1a4ba16824f4df329914baf49fe4ae2e518d85cd88bc2a4d7511486305611aa901d1333f199a38fc9c772c5b6dde72d9d9ef90dbe2a7ff20cb9685c2b30ef80c066995da220811544bd79b867d6a45c5f9d5f81246ee7bd867bae77ce1f1a5fd1347a12ac6258ea35211b6ba1a86831915843d88896e58f458f0d5765917c35e035fed90d06219d345c5ec7d3a0ae95883cede928acb380f8ef8b4b6859ef9652abcbb767e6e79b2dd22e5978eed3edd65fc15f583b875d14e2dc2f2a0d8543c03e599fcafefc67dbe7ab22b856e4e31201c5375c3b33927afe8894adefadbb90a284cbaf5f51b1acad87234b1b54a7d39eab320c9a28687261383db782c01572088b914ab44d993bfdc7273e34954b1bbf0dbc661d1c4081b3e81da92ddfcc52a05e0e97cb23e1404ff3331f83623c8f4c394b5d49037bb8cf64b6414d60779217e540739dd851a21e60d671a6dba94845f42487c32ec098a9c4c0c198198431b389bd1a4d6c9f88d6fbb6beb8c25a7f86151da3048fb29ce506076f3b7339701f60ddbcde529f2adcdebd2bf02940c1a9a378e0488c29a0ac38a17a9118bc5165cea4c3361c2b7edc485fb90f788d1b4ecf249b38701ce1ef0472003d9dba70bcbbc1e5599b61380fae8aa7c48f7dc2c543713ffc9a72a801e1a77f9f37c810cf8a31e0bb5eb4cdb46f2fc5fca97133ad03ab9cf53883b270a01260c7c534a0e20cd40e05e747fb3bdc07b3cfc50b3ceac18f059ef4f65565f447208335fb828df7cb07583a984136302cd3baf3b3d9f9177ef97f584b0daab7f0493d2577326d35e5c2e4f1092a1339918cbdbfcb5b1dda82c318103401d4a9e8fc321815909daf60bcb32e37020e105d8b9bc3aa31900cd3459046ab97eb228675846b691180e9f207b3ae8c1bc03ba74ac6509f094c0f38b729ef60c4c7b50851903cc56108c762e6d29f106ad148cfef47e8479947c29adc1aa4b32cf6e3574bba10c0b05616e878eee4c82e3229ca0d438bffebad485cacee4ed2a22cd64971813efb1038aaf3a42fc9a5721f69b7bb52a6ce9ea6e3e58b180be065509ab930ac979932e59d3453f983dff90e45f917cd74501a646319fd22c952f3152b077d56558401f0bf595db464070ab32553b095f4421524c20568df7ac803a3d299b3dab568d0b68d795eb7b68b11c333b381a2838bd9398fe371f08d48f2ded24e60e02654f18b33a4cd6eeb86b9fafe856f33753ca1cc6756dc4f843e03039dfde879a76b715e0ee169afa10d37a8062aece61391764ffc6d4dc6ddcb56f35880bb13c705625c616a97b05678348ce1d52718bb1d8521cff5a3d2ce5b37f7c190dc478622826a0882f49d8c0fd3be124ef75a7a107778ff66b5be2b66c0b64c2084809ede3070dbc7e5de51ff90466ae52b47a293b4cff6f0cb064b6dde4e00650a68b154129426faa9a237e4bf88eb59b094786cf49a96fdc54cf6c819e1b67e2b0d687070f1bd148d0b2faf46659e6db194bfdd5d037aea060737952bc30026f8547737d057bb63c3cfdbcbdafcf387bcb4fc35f3477a87e3ccbaf160e2d20c48a71df9e305d73a39971d2c9a4bd7407a5ddee537fa604400fd37215765e44250f2105af234b853c647b3463939121612eb301cea282f0c1d679ae8902417e66c9f1f5fb1bbf10b5716793e28145726e9198d7457af95c327f336967b14ad14fd25fa0fe0ada5d6553e357275b59357fc2213e1faf714a22eee3d5d3d502838fcde32e542e73f204baf6916a3af968db423019f558a87c104c514bd8f164d03d3deba7e81d29d896aae409cad919a995cc8717b7a078c623bd3af80c056dc1716d04353903644e9c312415bd756683697eb1ba4fea32c710d0f0129ae756984b52611993255a0912167ac123d1a2c9b10380a309d7f3b067b628e9da5085d98b90b0cd852d54cf1e2971b4c37d511fbd55ca08e2b56ee7fb91386192555f1757dde458601ce287c5e5b611ff5fb58751b3eb8335a8b5cde2fd2873522cea0e9bf6f5c5560ca0091a58ee20042ac02237bf01843886e4439d859a785362913c0cead1e4691f47e5ac7ec132d0c7136a9487fb0c6cf292b07e5515eb2ae942d4aaef2dfc7f29b08f57557514cdeac066d9eea594a5c5388e8f1064dcf19fe4be16d57b0d411f5962d5ee0c6521d26c8c6fe86327b03254322abdba93545fd5e401b3e53190159193393db9909fa9676e06ab64c9e48ae9981d2e69de2dd98343508eb30b6e21d7303d99b13772c5e79df4f97c1bbc6fd5e3c84bd65f35b2defc06148f58032d5aa07d8cc37953bb5f5d2aabea56e1b0b161eed95deafbb48ef9e8b233d5cb164f1b6eb4908f591b45bc4d4385a161cf46bc1b287369a5eecdfcfd140b62e0188576c886eecbe7191a7406798f0fb4bfa0c7182c135ef595ef570294f7aec71396e7b28ab67accf1c37de37ebc942bed502f53651a61fc62a1dcfc29d1ce5e11aa2dd7e1659029917e203cc816abc533dca943664bfe41e3d298abf64dc30d0bd1ec3ca032b7d27b8bf71a2e76ccd0c4a313642b6aad073167b8b133ce76790a7414fcd29c4f31df7e37573a174b7c889dd737f94b684a8b25d8972355897802e3d9093c471054ebfe17ab81c9b7c3ba9691693fe99c34802330498b1ed8fd2602a9d7085929301c5121009e4b9187a06c767ef9aceab2202d20926e03c1ef01e3862f91f2e868c1e148e0f7dc7297989c352cd6e56879888e7e21c0948f5229075542292ff5d8f4d6bf02b27e289f82bc3934ec7bcf5d4ce5d7aa9dbf2f5f21f44b7c70aa59847e1db36ccf30b8a33fa13c5e388ff5b92db2fc5d6da62fb51a65e37ad91961d99c8583a8172b9d247352118cee44b22465bef9865665a47e132192686d14d21ba0886af62d7f0eb51f413ff2bd98316a356183f58208a416185c7baccbc02f141efff3fb4a95e8d3b2695a0f0690c232d8b39605b46885fb305bc541a04645fb6f733b27d7950a233599ced31ad97e8d3297094dba4abd6f295be8a9589ac33d6f04a426390f6e6cd70aec289a6d1ef3264c887280ad42a8103c52bb2708e2a6917efb3fd9145bd1729c2c9fa67f01aba05ab47c56441cdf0816a0b76cabc81cc9f6bae4de63668f12ae669284b5aeca54be6780354b726e0a7bff238cb5cb4c216fcf0f507f40d3679c0acbaef83dd4b5b0db2a9e52c3a6048f17c79c4a7abafdff1d3f955b5da5e0816d44f817b705f484c771f1bac29428973b30874c1236177adc709f0a6b2d32745835162f5ed9ce69f36f156031e40b2e26c32addc2ceb297648d3fc271a548b9bf788bff4b2023cab820c4a4ee8f201bbb92dcd070b78863668016c24160c2c053dadb24001af4042a1e5124603307507505dd11a39d879137103f9972ad0f6d79ea24cc16610e1c9dd1984cda871a826ce5032975f4592fbd0f5263322cce7e33fdfb2d490fb4e80b7d17de89ad1558b7b9d3f4bd40213cc2af89ca9145e8b344d1bf504bf6256fae4e8c478adb09dc052add4308658eccc8e68ae4f8012d05f472b4c1c625a39319bca758748b08d4989195c225dcb4557ffb9dbb42cc431f4ecfdb0adf7e327cd5218b56b33723fde2d94ad2036e9a94304bc121f6c1845a1327d89a6f55bb9ca81eb91e07cd0f43871c3ac1f1e37bd2755613ed7b3a3ec11a3eb8fff749ab22f92446f62f85152339e3e373c4e4ad9b657f5e665676790ca0bf8e005767aedd4269d107d4f11e6b4bc7a2e4217c1c3cc2e298e450d010fd622c47e2cd7880e64b2e6b2e6fdf28958ca1ae65967871544bd1afd71c06b4b39318d5a076091a1266627ad1b40f0ceb66234377758d63f8c56e66c0af644ead06b4e987bde957467e75938f14040e31fe264d2cc1f55a3fce3ce86a68196d2a06336102c14d0cc892fc871d6f4219b29228092e58a02047d8debf48ba1442ea38aceb82605e8bfa7460c49af4960e0528ae6d904bb6c6379fef10cb1d1bc6e867054acf978041ce99becefb219322efa15c26a14170452119318cb1073b15b978fd05c40a5001560edf21df4aac16a534da5b52c672bb3326879104eb32db6e815036dc9e43a1d4144af33f09e71ca3cd855c325dbfd0f9e724f144d2c396c83b3300a1bbf691d33a4269b796f80484ff397ef3704d677718224f0eccd23a454a584ad7563bcd916c624a6d9fac09bac86d726aa8c5f4c6c45de2836d6d88f69cecc73ec17c882e29c728b3078316569eaf77c8ec57e85b52ee30cd6212133a17ca3a4e87bcfd7507598616214d0e2b188f173ee86cce1a411c0d2ff80e1ead326474358dbf412f8e540c01aa91173f752e069ecc268a7427e0935db3acd27fb7bc097e2b2c58d5a6acdd1fb4c10ef703b9687c4c6f9deddc9c9d3ef5ba1d9a87529d0a7387bc569c6c642913c425fa7538cb83e2a689d5caeac55b325d3597547ef6c8dc122a2a6d000c344eec023e56786b482a73477d0fd36701f0eddd08298e43913144c3f7b879d09887612efec260abd0d45688e61558f0288cbddd8b5774e48466f164d5e522b544131414d6f2fe1a75dc3f898674bca43b786b3eebb0e2ac53ea6336d2d0496f23399c133eef87007a5128b3f86d3ff94bdd1a0143b28d4b72e7b02b2022147764b03a20a11d5fb29aa2ab37f2917d0b42ef10170b5f8614bc6e4decda4186dfafba37","linkReferences":{}},"methodIdentifiers":{"verifyProof(uint256[2],uint256[2][2],uint256[2],uint256[4],uint256)":"a23f0199"},"id":20}