{"abi":[{"type":"constructor","inputs":[{"name":"_verifier","type":"address","internalType":"contract ISemaphoreVerifier"}],"stateMutability":"nonpayable"},{"type":"function","name":"acceptGroupAdmin","inputs":[{"name":"groupId","type":"uint256","internalType":"uint256"}],"outputs":[],"stateMutability":"nonpayable"},{"type":"function","name":"addMember","inputs":[{"name":"groupId","type":"uint256","internalType":"uint256"},{"name":"identityCommitment","type":"uint256","internalType":"uint256"}],"outputs":[],"stateMutability":"nonpayable"},{"type":"function","name":"addMembers","inputs":[{"name":"groupId","type":"uint256","internalType":"uint256"},{"name":"identityCommitments","type":"uint256[]","internalType":"uint256[]"}],"outputs":[],"stateMutability":"nonpayable"},{"type":"function","name":"createGroup","inputs":[{"name":"admin","type":"address","internalType":"address"},{"name":"merkleTreeDuration","type":"uint256","internalType":"uint256"}],"outputs":[{"name":"groupId","type":"uint256","internalType":"uint256"}],"stateMutability":"nonpayable"},{"type":"function","name":"createGroup","inputs":[],"outputs":[{"name":"groupId","type":"uint256","internalType":"uint256"}],"stateMutability":"nonpayable"},{"type":"function","name":"createGroup","inputs":[{"name":"admin","type":"address","internalType":"address"}],"outputs":[{"name":"groupId","type":"uint256","internalType":"uint256"}],"stateMutability":"nonpayable"},{"type":"function","name":"getGroupAdmin","inputs":[{"name":"groupId","type":"uint256","internalType":"uint256"}],"outputs":[{"name":"","type":"address","internalType":"address"}],"stateMutability":"view"},{"type":"function","name":"getMerkleTreeDepth","inputs":[{"name":"groupId","type":"uint256","internalType":"uint256"}],"outputs":[{"name":"","type":"uint256","internalType":"uint256"}],"stateMutability":"view"},{"type":"function","name":"getMerkleTreeRoot","inputs":[{"name":"groupId","type":"uint256","internalType":"uint256"}],"outputs":[{"name":"","type":"uint256","internalType":"uint256"}],"stateMutability":"view"},{"type":"function","name":"getMerkleTreeSize","inputs":[{"name":"groupId","type":"uint256","internalType":"uint256"}],"outputs":[{"name":"","type":"uint256","internalType":"uint256"}],"stateMutability":"view"},{"type":"function","name":"groupCounter","inputs":[],"outputs":[{"name":"","type":"uint256","internalType":"uint256"}],"stateMutability":"view"},{"type":"function","name":"groups","inputs":[{"name":"","type":"uint256","internalType":"uint256"}],"outputs":[{"name":"merkleTreeDuration","type":"uint256","internalType":"uint256"}],"stateMutability":"view"},{"type":"function","name":"hasMember","inputs":[{"name":"groupId","type":"uint256","internalType":"uint256"},{"name":"identityCommitment","type":"uint256","internalType":"uint256"}],"outputs":[{"name":"","type":"bool","internalType":"bool"}],"stateMutability":"view"},{"type":"function","name":"indexOf","inputs":[{"name":"groupId","type":"uint256","internalType":"uint256"},{"name":"identityCommitment","type":"uint256","internalType":"uint256"}],"outputs":[{"name":"","type":"uint256","internalType":"uint256"}],"stateMutability":"view"},{"type":"function","name":"removeMember","inputs":[{"name":"groupId","type":"uint256","internalType":"uint256"},{"name":"identityCommitment","type":"uint256","internalType":"uint256"},{"name":"merkleProofSiblings","type":"uint256[]","internalType":"uint256[]"}],"outputs":[],"stateMutability":"nonpayable"},{"type":"function","name":"updateGroupAdmin","inputs":[{"name":"groupId","type":"uint256","internalType":"uint256"},{"name":"newAdmin","type":"address","internalType":"address"}],"outputs":[],"stateMutability":"nonpayable"},{"type":"function","name":"updateGroupMerkleTreeDuration","inputs":[{"name":"groupId","type":"uint256","internalType":"uint256"},{"name":"newMerkleTreeDuration","type":"uint256","internalType":"uint256"}],"outputs":[],"stateMutability":"nonpayable"},{"type":"function","name":"updateMember","inputs":[{"name":"groupId","type":"uint256","internalType":"uint256"},{"name":"identityCommitment","type":"uint256","internalType":"uint256"},{"name":"newIdentityCommitment","type":"uint256","internalType":"uint256"},{"name":"merkleProofSiblings","type":"uint256[]","internalType":"uint256[]"}],"outputs":[],"stateMutability":"nonpayable"},{"type":"function","name":"validateProof","inputs":[{"name":"groupId","type":"uint256","internalType":"uint256"},{"name":"proof","type":"tuple","internalType":"struct ISemaphore.SemaphoreProof","components":[{"name":"merkleTreeDepth","type":"uint256","internalType":"uint256"},{"name":"merkleTreeRoot","type":"uint256","internalType":"uint256"},{"name":"nullifier","type":"uint256","internalType":"uint256"},{"name":"message","type":"uint256","internalType":"uint256"},{"name":"scope","type":"uint256","internalType":"uint256"},{"name":"points","type":"uint256[8]","internalType":"uint256[8]"}]}],"outputs":[],"stateMutability":"nonpayable"},{"type":"function","name":"verifier","inputs":[],"outputs":[{"name":"","type":"address","internalType":"contract ISemaphoreVerifier"}],"stateMutability":"view"},{"type":"function","name":"verifyProof","inputs":[{"name":"groupId","type":"uint256","internalType":"uint256"},{"name":"proof","type":"tuple","internalType":"struct ISemaphore.SemaphoreProof","components":[{"name":"merkleTreeDepth","type":"uint256","internalType":"uint256"},{"name":"merkleTreeRoot","type":"uint256","internalType":"uint256"},{"name":"nullifier","type":"uint256","internalType":"uint256"},{"name":"message","type":"uint256","internalType":"uint256"},{"name":"scope","type":"uint256","internalType":"uint256"},{"name":"points","type":"uint256[8]","internalType":"uint256[8]"}]}],"outputs":[{"name":"","type":"bool","internalType":"bool"}],"stateMutability":"view"},{"type":"event","name":"GroupAdminPending","inputs":[{"name":"groupId","type":"uint256","indexed":true,"internalType":"uint256"},{"name":"oldAdmin","type":"address","indexed":true,"internalType":"address"},{"name":"newAdmin","type":"address","indexed":true,"internalType":"address"}],"anonymous":false},{"type":"event","name":"GroupAdminUpdated","inputs":[{"name":"groupId","type":"uint256","indexed":true,"internalType":"uint256"},{"name":"oldAdmin","type":"address","indexed":true,"internalType":"address"},{"name":"newAdmin","type":"address","indexed":true,"internalType":"address"}],"anonymous":false},{"type":"event","name":"GroupCreated","inputs":[{"name":"groupId","type":"uint256","indexed":true,"internalType":"uint256"}],"anonymous":false},{"type":"event","name":"GroupMerkleTreeDurationUpdated","inputs":[{"name":"groupId","type":"uint256","indexed":true,"internalType":"uint256"},{"name":"oldMerkleTreeDuration","type":"uint256","indexed":false,"internalType":"uint256"},{"name":"newMerkleTreeDuration","type":"uint256","indexed":false,"internalType":"uint256"}],"anonymous":false},{"type":"event","name":"MemberAdded","inputs":[{"name":"groupId","type":"uint256","indexed":true,"internalType":"uint256"},{"name":"index","type":"uint256","indexed":false,"internalType":"uint256"},{"name":"identityCommitment","type":"uint256","indexed":false,"internalType":"uint256"},{"name":"merkleTreeRoot","type":"uint256","indexed":false,"internalType":"uint256"}],"anonymous":false},{"type":"event","name":"MemberRemoved","inputs":[{"name":"groupId","type":"uint256","indexed":true,"internalType":"uint256"},{"name":"index","type":"uint256","indexed":false,"internalType":"uint256"},{"name":"identityCommitment","type":"uint256","indexed":false,"internalType":"uint256"},{"name":"merkleTreeRoot","type":"uint256","indexed":false,"internalType":"uint256"}],"anonymous":false},{"type":"event","name":"MemberUpdated","inputs":[{"name":"groupId","type":"uint256","indexed":true,"internalType":"uint256"},{"name":"index","type":"uint256","indexed":false,"internalType":"uint256"},{"name":"identityCommitment","type":"uint256","indexed":false,"internalType":"uint256"},{"name":"newIdentityCommitment","type":"uint256","indexed":false,"internalType":"uint256"},{"name":"merkleTreeRoot","type":"uint256","indexed":false,"internalType":"uint256"}],"anonymous":false},{"type":"event","name":"MembersAdded","inputs":[{"name":"groupId","type":"uint256","indexed":true,"internalType":"uint256"},{"name":"startIndex","type":"uint256","indexed":false,"internalType":"uint256"},{"name":"identityCommitments","type":"uint256[]","indexed":false,"internalType":"uint256[]"},{"name":"merkleTreeRoot","type":"uint256","indexed":false,"internalType":"uint256"}],"anonymous":false},{"type":"event","name":"ProofValidated","inputs":[{"name":"groupId","type":"uint256","indexed":true,"internalType":"uint256"},{"name":"merkleTreeDepth","type":"uint256","indexed":false,"internalType":"uint256"},{"name":"merkleTreeRoot","type":"uint256","indexed":true,"internalType":"uint256"},{"name":"nullifier","type":"uint256","indexed":false,"internalType":"uint256"},{"name":"message","type":"uint256","indexed":false,"internalType":"uint256"},{"name":"scope","type":"uint256","indexed":true,"internalType":"uint256"},{"name":"points","type":"uint256[8]","indexed":false,"internalType":"uint256[8]"}],"anonymous":false},{"type":"error","name":"LeafAlreadyExists","inputs":[]},{"type":"error","name":"LeafCannotBeZero","inputs":[]},{"type":"error","name":"LeafDoesNotExist","inputs":[]},{"type":"error","name":"LeafGreaterThanSnarkScalarField","inputs":[]},{"type":"error","name":"Semaphore__CallerIsNotTheGroupAdmin","inputs":[]},{"type":"error","name":"Semaphore__CallerIsNotThePendingGroupAdmin","inputs":[]},{"type":"error","name":"Semaphore__GroupDoesNotExist","inputs":[]},{"type":"error","name":"Semaphore__GroupHasNoMembers","inputs":[]},{"type":"error","name":"Semaphore__InvalidProof","inputs":[]},{"type":"error","name":"Semaphore__MerkleTreeDepthIsNotSupported","inputs":[]},{"type":"error","name":"Semaphore__MerkleTreeRootIsExpired","inputs":[]},{"type":"error","name":"Semaphore__MerkleTreeRootIsNotPartOfTheGroup","inputs":[]},{"type":"error","name":"Semaphore__YouAreUsingTheSameNullifierTwice","inputs":[]},{"type":"error","name":"WrongSiblingNodes","inputs":[]}],"bytecode":{"object":"0x608060405234801562000010575f80fd5b5060405162003375380380620033758339818101604052810190620000369190620000f5565b8060035f6101000a81548173ffffffffffffffffffffffffffffffffffffffff021916908373ffffffffffffffffffffffffffffffffffffffff1602179055505062000125565b5f80fd5b5f73ffffffffffffffffffffffffffffffffffffffff82169050919050565b5f620000ac8262000081565b9050919050565b5f620000bf82620000a0565b9050919050565b620000d181620000b3565b8114620000dc575f80fd5b50565b5f81519050620000ef81620000c6565b92915050565b5f602082840312156200010d576200010c6200007d565b5b5f6200011c84828501620000df565b91505092915050565b61324280620001335f395ff3fe608060405234801561000f575f80fd5b5060043610610135575f3560e01c80636389e107116100b6578063a9961c941161007a578063a9961c9414610381578063d0d898dd146103b1578063d24924fe146103cd578063da3cda52146103eb578063dabc4d5114610407578063fcf0b6ec1461043757610135565b80636389e107146102a55780636cdd32fe146102d55780637ee35a0c146102f157806390509d441461032157806396324bd41461035157610135565b80634178c4d5116100fd5780634178c4d5146101ef578063456f41881461020b578063568ee8261461023b578063575185ed146102575780635c3f3b601461027557610135565b8063042453711461013957806306dd8485146101555780631783efc3146101855780632b7ac3f3146101a15780632c880363146101bf575b5f80fd5b610153600480360381019061014e9190612584565b610453565b005b61016f600480360381019061016a91906125e1565b61048f565b60405161017c919061262e565b60405180910390f35b61019f600480360381019061019a91906125e1565b6104ba565b005b6101a96104f4565b6040516101b691906126c1565b60405180910390f35b6101d960048036038101906101d49190612715565b610519565b6040516101e6919061262e565b60405180910390f35b61020960048036038101906102049190612753565b61055a565b005b610225600480360381019061022091906127fa565b61059a565b6040516102329190612853565b60405180910390f35b6102556004803603810190610250919061286c565b6109cc565b005b61025f6109da565b60405161026c919061262e565b60405180910390f35b61028f600480360381019061028a91906128aa565b610a1a565b60405161029c919061262e565b60405180910390f35b6102bf60048036038101906102ba91906128d5565b610a5c565b6040516102cc919061262e565b60405180910390f35b6102ef60048036038101906102ea9190612900565b610a78565b005b61030b600480360381019061030691906128d5565b610ab6565b604051610318919061262e565b60405180910390f35b61033b600480360381019061033691906125e1565b610ad1565b6040516103489190612853565b60405180910390f35b61036b600480360381019061036691906128d5565b610afc565b604051610378919061262e565b60405180910390f35b61039b600480360381019061039691906128d5565b610b16565b6040516103a89190612980565b60405180910390f35b6103cb60048036038101906103c691906127fa565b610b4f565b005b6103d5610c93565b6040516103e2919061262e565b60405180910390f35b610405600480360381019061040091906128d5565b610c99565b005b610421600480360381019061041c91906128d5565b610ca5565b60405161042e919061262e565b60405180910390f35b610451600480360381019061044c91906125e1565b610cc5565b005b5f61045f848484610dca565b90504260045f8681526020019081526020015f206001015f8381526020019081526020015f208190555050505050565b5f6104b2825f808681526020019081526020015f20610eda90919063ffffffff16565b905092915050565b5f6104c58383610f4f565b90504260045f8581526020019081526020015f206001015f8381526020019081526020015f2081905550505050565b60035f9054906101000a900473ffffffffffffffffffffffffffffffffffffffff1681565b5f60055f81548092919061052c906129c6565b91905055905061053c818461105a565b8160045f8381526020019081526020015f205f018190555092915050565b5f6105688686868686611135565b90504260045f8881526020019081526020015f206001015f8381526020019081526020015f2081905550505050505050565b5f825f73ffffffffffffffffffffffffffffffffffffffff1660015f8381526020019081526020015f205f9054906101000a900473ffffffffffffffffffffffffffffffffffffffff1673ffffffffffffffffffffffffffffffffffffffff1603610631576040517f029f057900000000000000000000000000000000000000000000000000000000815260040160405180910390fd5b600160ff16835f0135108061064c5750602060ff16835f0135115b15610683576040517fecf64f1200000000000000000000000000000000000000000000000000000000815260040160405180910390fd5b5f61068d85610ab6565b90505f81036106c8576040517fc8b02e0100000000000000000000000000000000000000000000000000000000815260040160405180910390fd5b5f6106d286610ca5565b9050808560200135146107a2575f60045f8881526020019081526020015f206001015f876020013581526020019081526020015f205490505f60045f8981526020019081526020015f205f015490505f820361075a576040517f4d32958600000000000000000000000000000000000000000000000000000000815260040160405180910390fd5b80826107669190612a0d565b42111561079f576040517f9581a99000000000000000000000000000000000000000000000000000000000815260040160405180910390fd5b50505b60035f9054906101000a900473ffffffffffffffffffffffffffffffffffffffff1673ffffffffffffffffffffffffffffffffffffffff1663a23f019960405180604001604052808860a0015f60088110610800576107ff612a40565b5b602002013581526020018860a00160016008811061082157610820612a40565b5b6020020135815250604051806040016040528060405180604001604052808b60a00160026008811061085657610855612a40565b5b602002013581526020018b60a00160036008811061087757610876612a40565b5b6020020135815250815260200160405180604001604052808b60a0016004600881106108a6576108a5612a40565b5b602002013581526020018b60a0016005600881106108c7576108c6612a40565b5b602002013581525081525060405180604001604052808a60a0016006600881106108f4576108f3612a40565b5b602002013581526020018a60a00160076008811061091557610914612a40565b5b602002013581525060405180608001604052808b6020013581526020018b6040013581526020016109498c60600135611264565b815260200161095b8c60800135611264565b8152508a5f01356040518663ffffffff1660e01b8152600401610982959493929190612c87565b602060405180830381865afa15801561099d573d5f803e3d5ffd5b505050506040513d601f19601f820116820180604052508101906109c19190612d05565b935050505092915050565b6109d68282611299565b5050565b5f60055f8154809291906109ed906129c6565b9190505590506109fd813361105a565b610e1060045f8381526020019081526020015f205f018190555090565b5f60055f815480929190610a2d906129c6565b919050559050610a3d818361105a565b610e1060045f8381526020019081526020015f205f0181905550919050565b5f805f8381526020019081526020015f20600101549050919050565b5f610a85858585856113de565b90504260045f8781526020019081526020015f206001015f8381526020019081526020015f20819055505050505050565b5f805f8381526020019081526020015f205f01549050919050565b5f610af4825f808681526020019081526020015f2061150890919063ffffffff16565b905092915050565b6004602052805f5260405f205f91509050805f0154905081565b5f60015f8381526020019081526020015f205f9054906101000a900473ffffffffffffffffffffffffffffffffffffffff169050919050565b60045f8381526020019081526020015f206002015f826040013581526020019081526020015f205f9054906101000a900460ff1615610bba576040517f208b15e800000000000000000000000000000000000000000000000000000000815260040160405180910390fd5b610bc4828261059a565b610bfa576040517f4aa6bc4000000000000000000000000000000000000000000000000000000000815260040160405180910390fd5b600160045f8481526020019081526020015f206002015f836040013581526020019081526020015f205f6101000a81548160ff02191690831515021790555080608001358160200135837f0c32e14cfe81a05d371c248d22de6b7ae849e981b76a1f8842e7b6da73fc405a845f0135856040013586606001358760a001604051610c879493929190612d4a565b60405180910390a45050565b60055481565b610ca281611528565b50565b5f610cbe5f808481526020019081526020015f206116d2565b9050919050565b813373ffffffffffffffffffffffffffffffffffffffff1660015f8381526020019081526020015f205f9054906101000a900473ffffffffffffffffffffffffffffffffffffffff1673ffffffffffffffffffffffffffffffffffffffff1614610d5b576040517fbb9bf27800000000000000000000000000000000000000000000000000000000815260040160405180910390fd5b5f60045f8581526020019081526020015f205f015490508260045f8681526020019081526020015f205f0181905550837f264b2a8f6763c084235fe832ba903482b2ef1a521336881fc75b987c2dfd29c58285604051610dbc929190612d8e565b60405180910390a250505050565b5f833373ffffffffffffffffffffffffffffffffffffffff1660015f8381526020019081526020015f205f9054906101000a900473ffffffffffffffffffffffffffffffffffffffff1673ffffffffffffffffffffffffffffffffffffffff1614610e61576040517fbb9bf27800000000000000000000000000000000000000000000000000000000815260040160405180910390fd5b5f610e6b86610ab6565b9050610e9185855f808a81526020019081526020015f206116f29092919063ffffffff16565b9250857f61e5e8054e3daf084a0c6c646c065e8bf5e7ca4d5567bda942309bd1652f349d82878787604051610ec99493929190612e24565b60405180910390a250509392505050565b5f80836003015f8481526020019081526020015f205403610f27576040517f7204756c00000000000000000000000000000000000000000000000000000000815260040160405180910390fd5b6001836003015f8481526020019081526020015f2054610f479190612e62565b905092915050565b5f823373ffffffffffffffffffffffffffffffffffffffff1660015f8381526020019081526020015f205f9054906101000a900473ffffffffffffffffffffffffffffffffffffffff1673ffffffffffffffffffffffffffffffffffffffff1614610fe6576040517fbb9bf27800000000000000000000000000000000000000000000000000000000815260040160405180910390fd5b5f610ff085610ab6565b9050611014845f808881526020019081526020015f20611cb690919063ffffffff16565b9250847f19239b3f93cd10558aaf11423af70c77763bf54f52bcc75bfa74d4d13548cde982868660405161104a93929190612e95565b60405180910390a2505092915050565b8060015f8481526020019081526020015f205f6101000a81548173ffffffffffffffffffffffffffffffffffffffff021916908373ffffffffffffffffffffffffffffffffffffffff160217905550817ff0adfb94eab6daf835deb69c5738fe636150c3dfd08094a76f39b963dc8cb05a60405160405180910390a28073ffffffffffffffffffffffffffffffffffffffff165f73ffffffffffffffffffffffffffffffffffffffff16837f0ba83579a0e79193ef649b9f5a8759d35af086ba62a3e207b52e4a8ae30d49e360405160405180910390a45050565b5f853373ffffffffffffffffffffffffffffffffffffffff1660015f8381526020019081526020015f205f9054906101000a900473ffffffffffffffffffffffffffffffffffffffff1673ffffffffffffffffffffffffffffffffffffffff16146111cc576040517fbb9bf27800000000000000000000000000000000000000000000000000000000815260040160405180910390fd5b5f6111ef875f808b81526020019081526020015f20610eda90919063ffffffff16565b9050611219878787875f808e81526020019081526020015f20611f0390949392919063ffffffff16565b9250877fea3588e4a2a0c93d6a0e69dfeaf7496f43ccccf02ad9ce0a5b7627cbca4b61b1828989876040516112519493929190612eca565b60405180910390a2505095945050505050565b5f6008826040516020016112789190612f2d565b604051602081830303815290604052805190602001205f1c901c9050919050565b813373ffffffffffffffffffffffffffffffffffffffff1660015f8381526020019081526020015f205f9054906101000a900473ffffffffffffffffffffffffffffffffffffffff1673ffffffffffffffffffffffffffffffffffffffff161461132f576040517fbb9bf27800000000000000000000000000000000000000000000000000000000815260040160405180910390fd5b8160025f8581526020019081526020015f205f6101000a81548173ffffffffffffffffffffffffffffffffffffffff021916908373ffffffffffffffffffffffffffffffffffffffff1602179055508173ffffffffffffffffffffffffffffffffffffffff163373ffffffffffffffffffffffffffffffffffffffff16847f1018365553cce55d9cb02ef73e18cc9311894f3fe1d1eafd235ac2d26cd8ba5860405160405180910390a4505050565b5f843373ffffffffffffffffffffffffffffffffffffffff1660015f8381526020019081526020015f205f9054906101000a900473ffffffffffffffffffffffffffffffffffffffff1673ffffffffffffffffffffffffffffffffffffffff1614611475576040517fbb9bf27800000000000000000000000000000000000000000000000000000000815260040160405180910390fd5b5f611498865f808a81526020019081526020015f20610eda90919063ffffffff16565b90506114c08686865f808c81526020019081526020015f206124d0909392919063ffffffff16565b9250867f3108849c053c77b8073a11256dffb5ffd5b55e93e105a355e1c9061db890d8718288866040516114f693929190612e95565b60405180910390a25050949350505050565b5f80836003015f8481526020019081526020015f20541415905092915050565b3373ffffffffffffffffffffffffffffffffffffffff1660025f8381526020019081526020015f205f9054906101000a900473ffffffffffffffffffffffffffffffffffffffff1673ffffffffffffffffffffffffffffffffffffffff16146115bd576040517f34c4245d00000000000000000000000000000000000000000000000000000000815260040160405180910390fd5b5f60015f8381526020019081526020015f205f9054906101000a900473ffffffffffffffffffffffffffffffffffffffff1690503360015f8481526020019081526020015f205f6101000a81548173ffffffffffffffffffffffffffffffffffffffff021916908373ffffffffffffffffffffffffffffffffffffffff16021790555060025f8381526020019081526020015f205f6101000a81549073ffffffffffffffffffffffffffffffffffffffff02191690553373ffffffffffffffffffffffffffffffffffffffff168173ffffffffffffffffffffffffffffffffffffffff16837f0ba83579a0e79193ef649b9f5a8759d35af086ba62a3e207b52e4a8ae30d49e360405160405180910390a45050565b5f816002015f836001015481526020019081526020015f20549050919050565b5f80845f015490505f5b84849050811015611878577f30644e72e131a029b85045b68181585d2833e84879b9709143e1f593f000000185858381811061173b5761173a612a40565b5b9050602002013510611779576040517fc380a82e00000000000000000000000000000000000000000000000000000000815260040160405180910390fd5b5f85858381811061178d5761178c612a40565b5b90506020020135036117cb576040517f29691be200000000000000000000000000000000000000000000000000000000815260040160405180910390fd5b6117ee868686848181106117e2576117e1612a40565b5b90506020020135611508565b15611825576040517f258a195a00000000000000000000000000000000000000000000000000000000815260040160405180910390fd5b806001836118339190612a0d565b61183d9190612a0d565b866003015f87878581811061185557611854612a40565b5b9050602002013581526020019081526020015f20819055508060010190506116fc565b5060608484808060200260200160405190810160405280939291908181526020018383602002808284375f81840152601f19601f8201169050808301925050505050505090505f866001015490505b85859050836118d69190612a0d565b8160026118e39190613076565b10156118fa57806118f3906129c6565b90506118c7565b8087600101819055505f8390505f87879050856119179190612a0d565b90505f600183901c90505f6001806001856119329190612e62565b901c61193e9190612a0d565b90505f5b85811015611c42575f83836119579190612e62565b90505f8167ffffffffffffffff811115611974576119736130c0565b5b6040519080825280602002602001820160405280156119a25781602001602082028036833780820191505090505b5090505f5b82811015611b6d575f88600288846119bf9190612a0d565b6119c991906130ed565b10156119ea578f6002015f8681526020019081526020015f20549050611a2a565b8a89600289856119fa9190612a0d565b611a0491906130ed565b611a0e9190612e62565b81518110611a1f57611a1e612a40565b5b602002602001015190505b5f88600160028a86611a3c9190612a0d565b611a4691906130ed565b611a509190612a0d565b1015611aa2578b8a600160028b87611a689190612a0d565b611a7291906130ed565b611a7c9190612a0d565b611a869190612e62565b81518110611a9757611a96612a40565b5b602002602001015190505b5f808214611b3b5773__$3df6530b668a25325f106f518886bbafa6$__63561558fe6040518060400160405280868152602001858152506040518263ffffffff1660e01b8152600401611af591906131b4565b602060405180830381865af4158015611b10573d5f803e3d5ffd5b505050506040513d601f19601f82011682018060405250810190611b3491906131e1565b9050611b3f565b8290505b80858581518110611b5357611b52612a40565b5b6020026020010181815250508360010193505050506119a7565b50600180871603611bbc578860018a51611b879190612e62565b81518110611b9857611b97612a40565b5b60200260200101518e6002015f8581526020019081526020015f2081905550611c07565b600189511115611c06578860028a51611bd59190612e62565b81518110611be657611be5612a40565b5b60200260200101518e6002015f8581526020019081526020015f20819055505b5b849650600185901c9450809850839550600180600186611c279190612e62565b901c611c339190612a0d565b93508260010192505050611942565b508989905087611c529190612a0d565b8b5f0181905550855f81518110611c6c57611c6b612a40565b5b60200260200101518b6002015f8781526020019081526020015f2081905550855f81518110611c9e57611c9d612a40565b5b60200260200101519750505050505050509392505050565b5f7f30644e72e131a029b85045b68181585d2833e84879b9709143e1f593f00000018210611d10576040517fc380a82e00000000000000000000000000000000000000000000000000000000815260040160405180910390fd5b5f8203611d49576040517f29691be200000000000000000000000000000000000000000000000000000000815260040160405180910390fd5b611d538383611508565b15611d8a576040517f258a195a00000000000000000000000000000000000000000000000000000000815260040160405180910390fd5b5f835f015490505f84600101549050600182611da69190612a0d565b816002611db39190613076565b1015611dc65780611dc3906129c6565b90505b8085600101819055505f8490505f5b82811015611eb2576001808286901c1603611e8e5773__$3df6530b668a25325f106f518886bbafa6$__63561558fe60405180604001604052808a6002015f8681526020019081526020015f20548152602001858152506040518263ffffffff1660e01b8152600401611e4891906131b4565b602060405180830381865af4158015611e63573d5f803e3d5ffd5b505050506040513d601f19601f82011682018060405250810190611e8791906131e1565b9150611ea7565b81876002015f8381526020019081526020015f20819055505b806001019050611dd5565b5082611ebd906129c6565b925082865f018190555080866002015f8481526020019081526020015f208190555082866003015f8781526020019081526020015f208190555080935050505092915050565b5f7f30644e72e131a029b85045b68181585d2833e84879b9709143e1f593f00000018410611f5d576040517fc380a82e00000000000000000000000000000000000000000000000000000000815260040160405180910390fd5b611f678686611508565b611f9d576040517f7204756c00000000000000000000000000000000000000000000000000000000815260040160405180910390fd5b611fa78685611508565b15611fde576040517f258a195a00000000000000000000000000000000000000000000000000000000815260040160405180910390fd5b5f611fe98787610eda565b90505f8590505f8790505f60018a5f01546120049190612e62565b90505f808b6001015490505f5b81811015612419576001808289901c16036121ed577f30644e72e131a029b85045b68181585d2833e84879b9709143e1f593f00000018a8a8581811061205a57612059612a40565b5b9050602002013510612098576040517fc380a82e00000000000000000000000000000000000000000000000000000000815260040160405180910390fd5b73__$3df6530b668a25325f106f518886bbafa6$__63561558fe60405180604001604052808d8d888181106120d0576120cf612a40565b5b905060200201358152602001898152506040518263ffffffff1660e01b81526004016120fc91906131b4565b602060405180830381865af4158015612117573d5f803e3d5ffd5b505050506040513d601f19601f8201168201806040525081019061213b91906131e1565b955073__$3df6530b668a25325f106f518886bbafa6$__63561558fe60405180604001604052808d8d8881811061217557612174612a40565b5b905060200201358152602001888152506040518263ffffffff1660e01b81526004016121a191906131b4565b602060405180830381865af41580156121bc573d5f803e3d5ffd5b505050506040513d601f19601f820116820180604052508101906121e091906131e1565b945082600101925061240e565b8084901c8188901c146123f4577f30644e72e131a029b85045b68181585d2833e84879b9709143e1f593f00000018a8a8581811061222e5761222d612a40565b5b905060200201351061226c576040517fc380a82e00000000000000000000000000000000000000000000000000000000815260040160405180910390fd5b848d6002015f8381526020019081526020015f20540361229f57858d6002015f8381526020019081526020015f20819055505b73__$3df6530b668a25325f106f518886bbafa6$__63561558fe60405180604001604052808981526020018d8d888181106122dd576122dc612a40565b5b905060200201358152506040518263ffffffff1660e01b815260040161230391906131b4565b602060405180830381865af415801561231e573d5f803e3d5ffd5b505050506040513d601f19601f8201168201806040525081019061234291906131e1565b955073__$3df6530b668a25325f106f518886bbafa6$__63561558fe60405180604001604052808881526020018d8d8881811061238257612381612a40565b5b905060200201358152506040518263ffffffff1660e01b81526004016123a891906131b4565b602060405180830381865af41580156123c3573d5f803e3d5ffd5b505050506040513d601f19601f820116820180604052508101906123e791906131e1565b945082600101925061240d565b858d6002015f8381526020019081526020015f20819055505b5b806001019050612011565b506124238c6116d2565b841461245b576040517f3fa930c600000000000000000000000000000000000000000000000000000000815260040160405180910390fd5b848c6002015f8381526020019081526020015f20819055505f8a146124a6578b6003015f8c81526020019081526020015f20548c6003015f8c81526020019081526020015f20819055505b5f8c6003015f8d81526020019081526020015f208190555084965050505050505095945050505050565b5f6124de85855f8686611f03565b9050949350505050565b5f80fd5b5f80fd5b5f819050919050565b612502816124f0565b811461250c575f80fd5b50565b5f8135905061251d816124f9565b92915050565b5f80fd5b5f80fd5b5f80fd5b5f8083601f84011261254457612543612523565b5b8235905067ffffffffffffffff81111561256157612560612527565b5b60208301915083602082028301111561257d5761257c61252b565b5b9250929050565b5f805f6040848603121561259b5761259a6124e8565b5b5f6125a88682870161250f565b935050602084013567ffffffffffffffff8111156125c9576125c86124ec565b5b6125d58682870161252f565b92509250509250925092565b5f80604083850312156125f7576125f66124e8565b5b5f6126048582860161250f565b92505060206126158582860161250f565b9150509250929050565b612628816124f0565b82525050565b5f6020820190506126415f83018461261f565b92915050565b5f73ffffffffffffffffffffffffffffffffffffffff82169050919050565b5f819050919050565b5f61268961268461267f84612647565b612666565b612647565b9050919050565b5f61269a8261266f565b9050919050565b5f6126ab82612690565b9050919050565b6126bb816126a1565b82525050565b5f6020820190506126d45f8301846126b2565b92915050565b5f6126e482612647565b9050919050565b6126f4816126da565b81146126fe575f80fd5b50565b5f8135905061270f816126eb565b92915050565b5f806040838503121561272b5761272a6124e8565b5b5f61273885828601612701565b92505060206127498582860161250f565b9150509250929050565b5f805f805f6080868803121561276c5761276b6124e8565b5b5f6127798882890161250f565b955050602061278a8882890161250f565b945050604061279b8882890161250f565b935050606086013567ffffffffffffffff8111156127bc576127bb6124ec565b5b6127c88882890161252f565b92509250509295509295909350565b5f80fd5b5f6101a082840312156127f1576127f06127d7565b5b81905092915050565b5f806101c08385031215612811576128106124e8565b5b5f61281e8582860161250f565b925050602061282f858286016127db565b9150509250929050565b5f8115159050919050565b61284d81612839565b82525050565b5f6020820190506128665f830184612844565b92915050565b5f8060408385031215612882576128816124e8565b5b5f61288f8582860161250f565b92505060206128a085828601612701565b9150509250929050565b5f602082840312156128bf576128be6124e8565b5b5f6128cc84828501612701565b91505092915050565b5f602082840312156128ea576128e96124e8565b5b5f6128f78482850161250f565b91505092915050565b5f805f8060608587031215612918576129176124e8565b5b5f6129258782880161250f565b94505060206129368782880161250f565b935050604085013567ffffffffffffffff811115612957576129566124ec565b5b6129638782880161252f565b925092505092959194509250565b61297a816126da565b82525050565b5f6020820190506129935f830184612971565b92915050565b7f4e487b71000000000000000000000000000000000000000000000000000000005f52601160045260245ffd5b5f6129d0826124f0565b91507fffffffffffffffffffffffffffffffffffffffffffffffffffffffffffffffff8203612a0257612a01612999565b5b600182019050919050565b5f612a17826124f0565b9150612a22836124f0565b9250828201905080821115612a3a57612a39612999565b5b92915050565b7f4e487b71000000000000000000000000000000000000000000000000000000005f52603260045260245ffd5b5f60029050919050565b5f81905092915050565b5f819050919050565b612a93816124f0565b82525050565b5f612aa48383612a8a565b60208301905092915050565b5f602082019050919050565b612ac581612a6d565b612acf8184612a77565b9250612ada82612a81565b805f5b83811015612b0a578151612af18782612a99565b9650612afc83612ab0565b925050600181019050612add565b505050505050565b5f60029050919050565b5f81905092915050565b5f819050919050565b5f81905092915050565b612b4281612a6d565b612b4c8184612b2f565b9250612b5782612a81565b805f5b83811015612b87578151612b6e8782612a99565b9650612b7983612ab0565b925050600181019050612b5a565b505050505050565b5f612b9a8383612b39565b60408301905092915050565b5f602082019050919050565b612bbb81612b12565b612bc58184612b1c565b9250612bd082612b26565b805f5b83811015612c00578151612be78782612b8f565b9650612bf283612ba6565b925050600181019050612bd3565b505050505050565b5f60049050919050565b5f81905092915050565b5f819050919050565b5f602082019050919050565b612c3a81612c08565b612c448184612c12565b9250612c4f82612c1c565b805f5b83811015612c7f578151612c668782612a99565b9650612c7183612c25565b925050600181019050612c52565b505050505050565b5f6101a082019050612c9b5f830188612abc565b612ca86040830187612bb2565b612cb560c0830186612abc565b612cc3610100830185612c31565b612cd161018083018461261f565b9695505050505050565b612ce481612839565b8114612cee575f80fd5b50565b5f81519050612cff81612cdb565b92915050565b5f60208284031215612d1a57612d196124e8565b5b5f612d2784828501612cf1565b91505092915050565b82818337505050565b612d466101008383612d30565b5050565b5f61016082019050612d5e5f83018761261f565b612d6b602083018661261f565b612d78604083018561261f565b612d856060830184612d39565b95945050505050565b5f604082019050612da15f83018561261f565b612dae602083018461261f565b9392505050565b5f82825260208201905092915050565b5f80fd5b5f612dd48385612db5565b93507f07ffffffffffffffffffffffffffffffffffffffffffffffffffffffffffffff831115612e0757612e06612dc5565b5b602083029250612e18838584612d30565b82840190509392505050565b5f606082019050612e375f83018761261f565b8181036020830152612e4a818587612dc9565b9050612e59604083018461261f565b95945050505050565b5f612e6c826124f0565b9150612e77836124f0565b9250828203905081811115612e8f57612e8e612999565b5b92915050565b5f606082019050612ea85f83018661261f565b612eb5602083018561261f565b612ec2604083018461261f565b949350505050565b5f608082019050612edd5f83018761261f565b612eea602083018661261f565b612ef7604083018561261f565b612f04606083018461261f565b95945050505050565b5f819050919050565b612f27612f22826124f0565b612f0d565b82525050565b5f612f388284612f16565b60208201915081905092915050565b5f8160011c9050919050565b5f808291508390505b6001851115612f9c57808604811115612f7857612f77612999565b5b6001851615612f875780820291505b8081029050612f9585612f47565b9450612f5c565b94509492505050565b5f82612fb4576001905061306f565b81612fc1575f905061306f565b8160018114612fd75760028114612fe157613010565b600191505061306f565b60ff841115612ff357612ff2612999565b5b8360020a91508482111561300a57613009612999565b5b5061306f565b5060208310610133831016604e8410600b84101617156130455782820a9050838111156130405761303f612999565b5b61306f565b6130528484846001612f53565b9250905081840481111561306957613068612999565b5b81810290505b9392505050565b5f613080826124f0565b915061308b836124f0565b92506130b87fffffffffffffffffffffffffffffffffffffffffffffffffffffffffffffffff8484612fa5565b905092915050565b7f4e487b71000000000000000000000000000000000000000000000000000000005f52604160045260245ffd5b5f6130f7826124f0565b9150613102836124f0565b9250828202613110816124f0565b9150828204841483151761312757613126612999565b5b5092915050565b5f81905092915050565b613141816124f0565b82525050565b5f6131528383613138565b60208301905092915050565b61316781612a6d565b613171818461312e565b925061317c82612a81565b805f5b838110156131ac5781516131938782613147565b965061319e83612ab0565b92505060018101905061317f565b505050505050565b5f6040820190506131c75f83018461315e565b92915050565b5f815190506131db816124f9565b92915050565b5f602082840312156131f6576131f56124e8565b5b5f613203848285016131cd565b9150509291505056fea264697066735822122071e8bc417df345d526969f5b5542ceeb28c971ea9bee40490658702b8ba9f8f964736f6c63430008170033","linkReferences":{"node_modules/poseidon-solidity/PoseidonT3.sol":{"PoseidonT3":[{"start":7135,"length":20},{"start":7967,"length":20},{"start":8653,"length":20},{"start":8818,"length":20},{"start":9172,"length":20},{"start":9337,"length":20}]}}},"methodIdentifiers":{"acceptGroupAdmin(uint256)":"da3cda52","addMember(uint256,uint256)":"1783efc3","addMembers(uint256,uint256[])":"04245371","createGroup()":"575185ed","createGroup(address)":"5c3f3b60","createGroup(address,uint256)":"2c880363","getGroupAdmin(uint256)":"a9961c94","getMerkleTreeDepth(uint256)":"6389e107","getMerkleTreeRoot(uint256)":"dabc4d51","getMerkleTreeSize(uint256)":"7ee35a0c","groupCounter()":"d24924fe","groups(uint256)":"96324bd4","hasMember(uint256,uint256)":"90509d44","indexOf(uint256,uint256)":"06dd8485","removeMember(uint256,uint256,uint256[])":"6cdd32fe","updateGroupAdmin(uint256,address)":"568ee826","updateGroupMerkleTreeDuration(uint256,uint256)":"fcf0b6ec","updateMember(uint256,uint256,uint256,uint256[])":"4178c4d5","validateProof(uint256,(uint256,uint256,uint256,uint256,uint256,uint256[8]))":"d0d898dd","verifier()":"2b7ac3f3","verifyProof(uint256,(uint256,uint256,uint256,uint256,uint256,uint256[8]))":"456f4188"},"id":17}