{"abi":[{"type":"constructor","inputs":[{"name":"_semaphore","type":"address","internalType":"address"},{"name":"_groupId","type":"uint256","internalType":"uint256"},{"name":"initialOwner","type":"address","internalType":"address"}],"stateMutability":"nonpayable"},{"type":"function","name":"attest","inputs":[{"name":"proof","type":"tuple","internalType":"struct ISemaphore.SemaphoreProof","components":[{"name":"merkleTreeDepth","type":"uint256","internalType":"uint256"},{"name":"merkleTreeRoot","type":"uint256","internalType":"uint256"},{"name":"nullifier","type":"uint256","internalType":"uint256"},{"name":"message","type":"uint256","internalType":"uint256"},{"name":"scope","type":"uint256","internalType":"uint256"},{"name":"points","type":"uint256[8]","internalType":"uint256[8]"}]}],"outputs":[],"stateMutability":"nonpayable"},{"type":"function","name":"groupId","inputs":[],"outputs":[{"name":"","type":"uint256","internalType":"uint256"}],"stateMutability":"view"},{"type":"function","name":"nullifiers","inputs":[{"name":"","type":"uint256","internalType":"uint256"}],"outputs":[{"name":"","type":"bool","internalType":"bool"}],"stateMutability":"view"},{"type":"function","name":"owner","inputs":[],"outputs":[{"name":"","type":"address","internalType":"address"}],"stateMutability":"view"},{"type":"function","name":"renounceOwnership","inputs":[],"outputs":[],"stateMutability":"nonpayable"},{"type":"function","name":"semaphore","inputs":[],"outputs":[{"name":"","type":"address","internalType":"contract ISemaphore"}],"stateMutability":"view"},{"type":"function","name":"transferOwnership","inputs":[{"name":"newOwner","type":"address","internalType":"address"}],"outputs":[],"stateMutability":"nonpayable"},{"type":"function","name":"updateGroup","inputs":[{"name":"_groupId","type":"uint256","internalType":"uint256"}],"outputs":[],"stateMutability":"nonpayable"},{"type":"function","name":"updateSemaphore","inputs":[{"name":"_semaphore","type":"address","internalType":"address"}],"outputs":[],"stateMutability":"nonpayable"},{"type":"function","name":"validatorAttestationCounts","inputs":[{"name":"","type":"uint256","internalType":"uint256"}],"outputs":[{"name":"","type":"uint256","internalType":"uint256"}],"stateMutability":"view"},{"type":"event","name":"Attested","inputs":[{"name":"validatorId","type":"uint256","indexed":true,"internalType":"uint256"},{"name":"nullifier","type":"uint256","indexed":true,"internalType":"uint256"}],"anonymous":false},{"type":"event","name":"OwnershipTransferred","inputs":[{"name":"previousOwner","type":"address","indexed":true,"internalType":"address"},{"name":"newOwner","type":"address","indexed":true,"internalType":"address"}],"anonymous":false},{"type":"error","name":"OwnableInvalidOwner","inputs":[{"name":"owner","type":"address","internalType":"address"}]},{"type":"error","name":"OwnableUnauthorizedAccount","inputs":[{"name":"account","type":"address","internalType":"address"}]}],"bytecode":{"object":"0x608060405234801562000010575f80fd5b506040516200103d3803806200103d83398181016040528101906200003691906200026a565b805f73ffffffffffffffffffffffffffffffffffffffff168173ffffffffffffffffffffffffffffffffffffffff1603620000aa575f6040517f1e4fbdf7000000000000000000000000000000000000000000000000000000008152600401620000a19190620002d4565b60405180910390fd5b620000bb816200010c60201b60201c565b508260015f6101000a81548173ffffffffffffffffffffffffffffffffffffffff021916908373ffffffffffffffffffffffffffffffffffffffff16021790555081600281905550505050620002ef565b5f805f9054906101000a900473ffffffffffffffffffffffffffffffffffffffff169050815f806101000a81548173ffffffffffffffffffffffffffffffffffffffff021916908373ffffffffffffffffffffffffffffffffffffffff1602179055508173ffffffffffffffffffffffffffffffffffffffff168173ffffffffffffffffffffffffffffffffffffffff167f8be0079c531659141344cd1fd0a4f28419497f9722a3daafe3b4186f6b6457e060405160405180910390a35050565b5f80fd5b5f73ffffffffffffffffffffffffffffffffffffffff82169050919050565b5f620001fc82620001d1565b9050919050565b6200020e81620001f0565b811462000219575f80fd5b50565b5f815190506200022c8162000203565b92915050565b5f819050919050565b620002468162000232565b811462000251575f80fd5b50565b5f8151905062000264816200023b565b92915050565b5f805f60608486031215620002845762000283620001cd565b5b5f62000293868287016200021c565b9350506020620002a68682870162000254565b9250506040620002b9868287016200021c565b9150509250925092565b620002ce81620001f0565b82525050565b5f602082019050620002e95f830184620002c3565b92915050565b610d4080620002fd5f395ff3fe608060405234801561000f575f80fd5b506004361061009c575f3560e01c80638da5cb5b116100645780638da5cb5b14610130578063a0f44c921461014e578063d21e82ab1461016c578063f2fde38b1461019c578063f31b2e42146101b85761009c565b806308c4becc146100a05780633379fc99146100d05780636673bd31146100ec578063715018a6146101085780637b5d253414610112575b5f80fd5b6100ba60048036038101906100b59190610680565b6101d4565b6040516100c791906106ba565b60405180910390f35b6100ea60048036038101906100e5919061072d565b6101e9565b005b61010660048036038101906101019190610680565b610234565b005b610110610246565b005b61011a610259565b60405161012791906107b3565b60405180910390f35b61013861027e565b60405161014591906107db565b60405180910390f35b6101566102a5565b60405161016391906106ba565b60405180910390f35b61018660048036038101906101819190610680565b6102ab565b604051610193919061080e565b60405180910390f35b6101b660048036038101906101b1919061072d565b6102c8565b005b6101d260048036038101906101cd919061084a565b61034c565b005b6004602052805f5260405f205f915090505481565b6101f16104f1565b8060015f6101000a81548173ffffffffffffffffffffffffffffffffffffffff021916908373ffffffffffffffffffffffffffffffffffffffff16021790555050565b61023c6104f1565b8060028190555050565b61024e6104f1565b6102575f610578565b565b60015f9054906101000a900473ffffffffffffffffffffffffffffffffffffffff1681565b5f805f9054906101000a900473ffffffffffffffffffffffffffffffffffffffff16905090565b60025481565b6003602052805f5260405f205f915054906101000a900460ff1681565b6102d06104f1565b5f73ffffffffffffffffffffffffffffffffffffffff168173ffffffffffffffffffffffffffffffffffffffff1603610340575f6040517f1e4fbdf700000000000000000000000000000000000000000000000000000000815260040161033791906107db565b60405180910390fd5b61034981610578565b50565b60035f826040013581526020019081526020015f205f9054906101000a900460ff16156103ae576040517f08c379a00000000000000000000000000000000000000000000000000000000081526004016103a5906108d0565b60405180910390fd5b5f818036038101906103c09190610ace565b905060015f9054906101000a900473ffffffffffffffffffffffffffffffffffffffff1673ffffffffffffffffffffffffffffffffffffffff1663456f4188600254836040518363ffffffff1660e01b8152600401610420929190610c19565b602060405180830381865afa15801561043b573d5f803e3d5ffd5b505050506040513d601f19601f8201168201806040525081019061045f9190610c6b565b50600160035f846040013581526020019081526020015f205f6101000a81548160ff02191690831515021790555060045f836060013581526020019081526020015f205f8154809291906104b290610cc3565b9190505550816040013582606001357f6cc5cead0e983ffec21554cd4e698fe00950d2ac7fd6adcfa0bd9316ebe23a4360405160405180910390a35050565b6104f9610639565b73ffffffffffffffffffffffffffffffffffffffff1661051761027e565b73ffffffffffffffffffffffffffffffffffffffff16146105765761053a610639565b6040517f118cdaa700000000000000000000000000000000000000000000000000000000815260040161056d91906107db565b60405180910390fd5b565b5f805f9054906101000a900473ffffffffffffffffffffffffffffffffffffffff169050815f806101000a81548173ffffffffffffffffffffffffffffffffffffffff021916908373ffffffffffffffffffffffffffffffffffffffff1602179055508173ffffffffffffffffffffffffffffffffffffffff168173ffffffffffffffffffffffffffffffffffffffff167f8be0079c531659141344cd1fd0a4f28419497f9722a3daafe3b4186f6b6457e060405160405180910390a35050565b5f33905090565b5f604051905090565b5f80fd5b5f819050919050565b61065f8161064d565b8114610669575f80fd5b50565b5f8135905061067a81610656565b92915050565b5f6020828403121561069557610694610649565b5b5f6106a28482850161066c565b91505092915050565b6106b48161064d565b82525050565b5f6020820190506106cd5f8301846106ab565b92915050565b5f73ffffffffffffffffffffffffffffffffffffffff82169050919050565b5f6106fc826106d3565b9050919050565b61070c816106f2565b8114610716575f80fd5b50565b5f8135905061072781610703565b92915050565b5f6020828403121561074257610741610649565b5b5f61074f84828501610719565b91505092915050565b5f819050919050565b5f61077b610776610771846106d3565b610758565b6106d3565b9050919050565b5f61078c82610761565b9050919050565b5f61079d82610782565b9050919050565b6107ad81610793565b82525050565b5f6020820190506107c65f8301846107a4565b92915050565b6107d5816106f2565b82525050565b5f6020820190506107ee5f8301846107cc565b92915050565b5f8115159050919050565b610808816107f4565b82525050565b5f6020820190506108215f8301846107ff565b92915050565b5f80fd5b5f6101a0828403121561084157610840610827565b5b81905092915050565b5f6101a082840312156108605761085f610649565b5b5f61086d8482850161082b565b91505092915050565b5f82825260208201905092915050565b7f4e756c6c696669657220616c72656164792075736564000000000000000000005f82015250565b5f6108ba601683610876565b91506108c582610886565b602082019050919050565b5f6020820190508181035f8301526108e7816108ae565b9050919050565b5f80fd5b5f601f19601f8301169050919050565b7f4e487b71000000000000000000000000000000000000000000000000000000005f52604160045260245ffd5b610938826108f2565b810181811067ffffffffffffffff8211171561095757610956610902565b5b80604052505050565b5f610969610640565b9050610975828261092f565b919050565b5f80fd5b5f67ffffffffffffffff82111561099857610997610902565b5b602082029050919050565b5f80fd5b5f6109b96109b48461097e565b610960565b905080602084028301858111156109d3576109d26109a3565b5b835b818110156109fc57806109e8888261066c565b8452602084019350506020810190506109d5565b5050509392505050565b5f82601f830112610a1a57610a1961097a565b5b6008610a278482856109a7565b91505092915050565b5f6101a08284031215610a4657610a456108ee565b5b610a5060c0610960565b90505f610a5f8482850161066c565b5f830152506020610a728482850161066c565b6020830152506040610a868482850161066c565b6040830152506060610a9a8482850161066c565b6060830152506080610aae8482850161066c565b60808301525060a0610ac284828501610a06565b60a08301525092915050565b5f6101a08284031215610ae457610ae3610649565b5b5f610af184828501610a30565b91505092915050565b610b038161064d565b82525050565b5f60089050919050565b5f81905092915050565b5f819050919050565b5f610b318383610afa565b60208301905092915050565b5f602082019050919050565b610b5281610b09565b610b5c8184610b13565b9250610b6782610b1d565b805f5b83811015610b97578151610b7e8782610b26565b9650610b8983610b3d565b925050600181019050610b6a565b505050505050565b6101a082015f820151610bb45f850182610afa565b506020820151610bc76020850182610afa565b506040820151610bda6040850182610afa565b506060820151610bed6060850182610afa565b506080820151610c006080850182610afa565b5060a0820151610c1360a0850182610b49565b50505050565b5f6101c082019050610c2d5f8301856106ab565b610c3a6020830184610b9f565b9392505050565b610c4a816107f4565b8114610c54575f80fd5b50565b5f81519050610c6581610c41565b92915050565b5f60208284031215610c8057610c7f610649565b5b5f610c8d84828501610c57565b91505092915050565b7f4e487b71000000000000000000000000000000000000000000000000000000005f52601160045260245ffd5b5f610ccd8261064d565b91507fffffffffffffffffffffffffffffffffffffffffffffffffffffffffffffffff8203610cff57610cfe610c96565b5b60018201905091905056fea26469706673582212205466100d31ef11d1f865c9df5261c09fe905a1a9351bb94612866aeba24d1e2164736f6c63430008170033","linkReferences":{}},"methodIdentifiers":{"attest((uint256,uint256,uint256,uint256,uint256,uint256[8]))":"f31b2e42","groupId()":"a0f44c92","nullifiers(uint256)":"d21e82ab","owner()":"8da5cb5b","renounceOwnership()":"715018a6","semaphore()":"7b5d2534","transferOwnership(address)":"f2fde38b","updateGroup(uint256)":"6673bd31","updateSemaphore(address)":"3379fc99","validatorAttestationCounts(uint256)":"08c4becc"},"id":29}