{"abi":[{"type":"constructor","inputs":[],"stateMutability":"nonpayable"},{"type":"function","name":"allMessages","inputs":[{"name":"","type":"uint256","internalType":"uint256"}],"outputs":[{"name":"validator","type":"address","internalType":"address"},{"name":"nominator","type":"address","internalType":"address"},{"name":"content","type":"string","internalType":"string"},{"name":"era","type":"uint256","internalType":"uint256"},{"name":"txHash","type":"bytes32","internalType":"bytes32"}],"stateMutability":"view"},{"type":"function","name":"getAllMessages","inputs":[],"outputs":[{"name":"","type":"tuple[]","internalType":"struct ValidatorMessages.Message[]","components":[{"name":"validator","type":"address","internalType":"address"},{"name":"nominator","type":"address","internalType":"address"},{"name":"content","type":"string","internalType":"string"},{"name":"era","type":"uint256","internalType":"uint256"},{"name":"txHash","type":"bytes32","internalType":"bytes32"}]}],"stateMutability":"view"},{"type":"function","name":"getMessages","inputs":[{"name":"validatorFilter","type":"address","internalType":"address"},{"name":"nominatorFilter","type":"address","internalType":"address"},{"name":"offset","type":"uint256","internalType":"uint256"},{"name":"limit","type":"uint256","internalType":"uint256"}],"outputs":[{"name":"","type":"tuple[]","internalType":"struct ValidatorMessages.Message[]","components":[{"name":"validator","type":"address","internalType":"address"},{"name":"nominator","type":"address","internalType":"address"},{"name":"content","type":"string","internalType":"string"},{"name":"era","type":"uint256","internalType":"uint256"},{"name":"txHash","type":"bytes32","internalType":"bytes32"}]}],"stateMutability":"view"},{"type":"function","name":"getMessagesByNominator","inputs":[{"name":"nominator","type":"address","internalType":"address"}],"outputs":[{"name":"","type":"tuple[]","internalType":"struct ValidatorMessages.Message[]","components":[{"name":"validator","type":"address","internalType":"address"},{"name":"nominator","type":"address","internalType":"address"},{"name":"content","type":"string","internalType":"string"},{"name":"era","type":"uint256","internalType":"uint256"},{"name":"txHash","type":"bytes32","internalType":"bytes32"}]}],"stateMutability":"view"},{"type":"function","name":"getMessagesByValidator","inputs":[{"name":"validator","type":"address","internalType":"address"}],"outputs":[{"name":"","type":"tuple[]","internalType":"struct ValidatorMessages.Message[]","components":[{"name":"validator","type":"address","internalType":"address"},{"name":"nominator","type":"address","internalType":"address"},{"name":"content","type":"string","internalType":"string"},{"name":"era","type":"uint256","internalType":"uint256"},{"name":"txHash","type":"bytes32","internalType":"bytes32"}]}],"stateMutability":"view"},{"type":"function","name":"getTotalMessageCount","inputs":[],"outputs":[{"name":"","type":"uint256","internalType":"uint256"}],"stateMutability":"view"},{"type":"function","name":"nominatorToMessages","inputs":[{"name":"","type":"address","internalType":"address"},{"name":"","type":"uint256","internalType":"uint256"}],"outputs":[{"name":"validator","type":"address","internalType":"address"},{"name":"nominator","type":"address","internalType":"address"},{"name":"content","type":"string","internalType":"string"},{"name":"era","type":"uint256","internalType":"uint256"},{"name":"txHash","type":"bytes32","internalType":"bytes32"}],"stateMutability":"view"},{"type":"function","name":"submitMessage","inputs":[{"name":"validator","type":"address","internalType":"address"},{"name":"content","type":"string","internalType":"string"},{"name":"era","type":"uint256","internalType":"uint256"},{"name":"txHash","type":"bytes32","internalType":"bytes32"}],"outputs":[],"stateMutability":"nonpayable"},{"type":"function","name":"validatorToMessages","inputs":[{"name":"","type":"address","internalType":"address"},{"name":"","type":"uint256","internalType":"uint256"}],"outputs":[{"name":"validator","type":"address","internalType":"address"},{"name":"nominator","type":"address","internalType":"address"},{"name":"content","type":"string","internalType":"string"},{"name":"era","type":"uint256","internalType":"uint256"},{"name":"txHash","type":"bytes32","internalType":"bytes32"}],"stateMutability":"view"},{"type":"event","name":"MessageSubmitted","inputs":[{"name":"validator","type":"address","indexed":true,"internalType":"address"},{"name":"nominator","type":"address","indexed":true,"internalType":"address"},{"name":"era","type":"uint256","indexed":true,"internalType":"uint256"},{"name":"content","type":"string","indexed":false,"internalType":"string"},{"name":"txHash","type":"bytes32","indexed":false,"internalType":"bytes32"}],"anonymous":false}],"bytecode":{"object":"0x608060405234801562000010575f80fd5b506200008161742d618ba16040518060400160405280600e81526020017f54657374206d65737361676520310000000000000000000000000000000000008152506130397f6d255fc3390ee6b41191da315958b7d6a1e5b17904cc7683558f98acc57977b4620000f760201b60201c565b620000f1615fdd617e4d6040518060400160405280600e81526020017f54657374206d657373616765203200000000000000000000000000000000000081525061b26e7f4da432f1ecd4c0ac028ebde3a3f78510a21d54087b161590a63080d33b702b8d620000f760201b60201c565b620007b5565b5f6040518060a001604052808773ffffffffffffffffffffffffffffffffffffffff1681526020018673ffffffffffffffffffffffffffffffffffffffff1681526020018581526020018481526020018381525090505f81908060018154018082558091505060019003905f5260205f2090600502015f909190919091505f820151815f015f6101000a81548173ffffffffffffffffffffffffffffffffffffffff021916908373ffffffffffffffffffffffffffffffffffffffff1602179055506020820151816001015f6101000a81548173ffffffffffffffffffffffffffffffffffffffff021916908373ffffffffffffffffffffffffffffffffffffffff1602179055506040820151816002019081620002169190620006d1565b506060820151816003015560808201518160040155505060015f8773ffffffffffffffffffffffffffffffffffffffff1673ffffffffffffffffffffffffffffffffffffffff1681526020019081526020015f2081908060018154018082558091505060019003905f5260205f2090600502015f909190919091505f820151815f015f6101000a81548173ffffffffffffffffffffffffffffffffffffffff021916908373ffffffffffffffffffffffffffffffffffffffff1602179055506020820151816001015f6101000a81548173ffffffffffffffffffffffffffffffffffffffff021916908373ffffffffffffffffffffffffffffffffffffffff1602179055506040820151816002019081620003329190620006d1565b506060820151816003015560808201518160040155505060025f8673ffffffffffffffffffffffffffffffffffffffff1673ffffffffffffffffffffffffffffffffffffffff1681526020019081526020015f2081908060018154018082558091505060019003905f5260205f2090600502015f909190919091505f820151815f015f6101000a81548173ffffffffffffffffffffffffffffffffffffffff021916908373ffffffffffffffffffffffffffffffffffffffff1602179055506020820151816001015f6101000a81548173ffffffffffffffffffffffffffffffffffffffff021916908373ffffffffffffffffffffffffffffffffffffffff16021790555060408201518160020190816200044e9190620006d1565b5060608201518160030155608082015181600401555050505050505050565b5f81519050919050565b7f4e487b71000000000000000000000000000000000000000000000000000000005f52604160045260245ffd5b7f4e487b71000000000000000000000000000000000000000000000000000000005f52602260045260245ffd5b5f6002820490506001821680620004e957607f821691505b602082108103620004ff57620004fe620004a4565b5b50919050565b5f819050815f5260205f209050919050565b5f6020601f8301049050919050565b5f82821b905092915050565b5f60088302620005637fffffffffffffffffffffffffffffffffffffffffffffffffffffffffffffffff8262000526565b6200056f868362000526565b95508019841693508086168417925050509392505050565b5f819050919050565b5f819050919050565b5f620005b9620005b3620005ad8462000587565b62000590565b62000587565b9050919050565b5f819050919050565b620005d48362000599565b620005ec620005e382620005c0565b84845462000532565b825550505050565b5f90565b62000602620005f4565b6200060f818484620005c9565b505050565b5b8181101562000636576200062a5f82620005f8565b60018101905062000615565b5050565b601f82111562000685576200064f8162000505565b6200065a8462000517565b810160208510156200066a578190505b62000682620006798562000517565b83018262000614565b50505b505050565b5f82821c905092915050565b5f620006a75f19846008026200068a565b1980831691505092915050565b5f620006c1838362000696565b9150826002028217905092915050565b620006dc826200046d565b67ffffffffffffffff811115620006f857620006f762000477565b5b620007048254620004d1565b620007118282856200063a565b5f60209050601f83116001811462000747575f841562000732578287015190505b6200073e8582620006b4565b865550620007ad565b601f198416620007578662000505565b5f5b82811015620007805784890151825560018201915060208501945060208101905062000759565b86831015620007a057848901516200079c601f89168262000696565b8355505b6001600288020188555050505b505050505050565b61256c80620007c35f395ff3fe608060405234801561000f575f80fd5b5060043610610091575f3560e01c8063a16007de11610064578063a16007de1461014b578063b021352a1461017b578063c34688ea14610199578063e2481858146101cd578063ff112679146101e957610091565b806353f5e38014610095578063863d1f20146100b35780639b88c806146100e35780639c2055e114610117575b5f80fd5b61009d610219565b6040516100aa9190611af6565b60405180910390f35b6100cd60048036038101906100c89190611b72565b6103c1565b6040516100da9190611af6565b60405180910390f35b6100fd60048036038101906100f89190611bd6565b61059d565b60405161010e959493929190611c76565b60405180910390f35b610131600480360381019061012c9190611cce565b6106a1565b604051610142959493929190611c76565b60405180910390f35b61016560048036038101906101609190611d0c565b6107b1565b6040516101729190611af6565b60405180910390f35b610183610a05565b6040516101909190611d37565b60405180910390f35b6101b360048036038101906101ae9190611cce565b610a10565b6040516101c4959493929190611c76565b60405180910390f35b6101e760048036038101906101e29190611ddb565b610b20565b005b61020360048036038101906101fe9190611d0c565b61107c565b6040516102109190611af6565b60405180910390f35b60605f805480602002602001604051908101604052809291908181526020015f905b828210156103b8578382905f5260205f2090600502016040518060a00160405290815f82015f9054906101000a900473ffffffffffffffffffffffffffffffffffffffff1673ffffffffffffffffffffffffffffffffffffffff1673ffffffffffffffffffffffffffffffffffffffff168152602001600182015f9054906101000a900473ffffffffffffffffffffffffffffffffffffffff1673ffffffffffffffffffffffffffffffffffffffff1673ffffffffffffffffffffffffffffffffffffffff16815260200160028201805461031590611e8c565b80601f016020809104026020016040519081016040528092919081815260200182805461034190611e8c565b801561038c5780601f106103635761010080835404028352916020019161038c565b820191905f5260205f20905b81548152906001019060200180831161036f57829003601f168201915b50505050508152602001600382015481526020016004820154815250508152602001906001019061023b565b50505050905090565b60605f8211610405576040517f08c379a00000000000000000000000000000000000000000000000000000000081526004016103fc90611f06565b60405180910390fd5b5f73ffffffffffffffffffffffffffffffffffffffff168573ffffffffffffffffffffffffffffffffffffffff161415801561046d57505f73ffffffffffffffffffffffffffffffffffffffff168473ffffffffffffffffffffffffffffffffffffffff1614155b156104855761047e858585856112d0565b9050610595565b5f73ffffffffffffffffffffffffffffffffffffffff168573ffffffffffffffffffffffffffffffffffffffff1614610506576104ff60015f8773ffffffffffffffffffffffffffffffffffffffff1673ffffffffffffffffffffffffffffffffffffffff1681526020019081526020015f2084846115c3565b9050610595565b5f73ffffffffffffffffffffffffffffffffffffffff168473ffffffffffffffffffffffffffffffffffffffff16146105875761058060025f8673ffffffffffffffffffffffffffffffffffffffff1673ffffffffffffffffffffffffffffffffffffffff1681526020019081526020015f2084846115c3565b9050610595565b6105925f84846115c3565b90505b949350505050565b5f81815481106105ab575f80fd5b905f5260205f2090600502015f91509050805f015f9054906101000a900473ffffffffffffffffffffffffffffffffffffffff1690806001015f9054906101000a900473ffffffffffffffffffffffffffffffffffffffff169080600201805461061490611e8c565b80601f016020809104026020016040519081016040528092919081815260200182805461064090611e8c565b801561068b5780601f106106625761010080835404028352916020019161068b565b820191905f5260205f20905b81548152906001019060200180831161066e57829003601f168201915b5050505050908060030154908060040154905085565b6002602052815f5260405f2081815481106106ba575f80fd5b905f5260205f2090600502015f9150915050805f015f9054906101000a900473ffffffffffffffffffffffffffffffffffffffff1690806001015f9054906101000a900473ffffffffffffffffffffffffffffffffffffffff169080600201805461072490611e8c565b80601f016020809104026020016040519081016040528092919081815260200182805461075090611e8c565b801561079b5780601f106107725761010080835404028352916020019161079b565b820191905f5260205f20905b81548152906001019060200180831161077e57829003601f168201915b5050505050908060030154908060040154905085565b60605f73ffffffffffffffffffffffffffffffffffffffff168273ffffffffffffffffffffffffffffffffffffffff1603610821576040517f08c379a000000000000000000000000000000000000000000000000000000000815260040161081890611f6e565b60405180910390fd5b60015f8373ffffffffffffffffffffffffffffffffffffffff1673ffffffffffffffffffffffffffffffffffffffff1681526020019081526020015f20805480602002602001604051908101604052809291908181526020015f905b828210156109fa578382905f5260205f2090600502016040518060a00160405290815f82015f9054906101000a900473ffffffffffffffffffffffffffffffffffffffff1673ffffffffffffffffffffffffffffffffffffffff1673ffffffffffffffffffffffffffffffffffffffff168152602001600182015f9054906101000a900473ffffffffffffffffffffffffffffffffffffffff1673ffffffffffffffffffffffffffffffffffffffff1673ffffffffffffffffffffffffffffffffffffffff16815260200160028201805461095790611e8c565b80601f016020809104026020016040519081016040528092919081815260200182805461098390611e8c565b80156109ce5780601f106109a5576101008083540402835291602001916109ce565b820191905f5260205f20905b8154815290600101906020018083116109b157829003601f168201915b50505050508152602001600382015481526020016004820154815250508152602001906001019061087d565b505050509050919050565b5f8080549050905090565b6001602052815f5260405f208181548110610a29575f80fd5b905f5260205f2090600502015f9150915050805f015f9054906101000a900473ffffffffffffffffffffffffffffffffffffffff1690806001015f9054906101000a900473ffffffffffffffffffffffffffffffffffffffff1690806002018054610a9390611e8c565b80601f0160208091040260200160405190810160405280929190818152602001828054610abf90611e8c565b8015610b0a5780601f10610ae157610100808354040283529160200191610b0a565b820191905f5260205f20905b815481529060010190602001808311610aed57829003601f168201915b5050505050908060030154908060040154905085565b610100848490501115610b68576040517f08c379a0000000000000000000000000000000000000000000000000000000008152600401610b5f90611fd6565b60405180910390fd5b5f8484905011610bad576040517f08c379a0000000000000000000000000000000000000000000000000000000008152600401610ba49061203e565b60405180910390fd5b5f73ffffffffffffffffffffffffffffffffffffffff168573ffffffffffffffffffffffffffffffffffffffff1603610c1b576040517f08c379a0000000000000000000000000000000000000000000000000000000008152600401610c1290611f6e565b60405180910390fd5b5f801b8103610c5f576040517f08c379a0000000000000000000000000000000000000000000000000000000008152600401610c56906120a6565b60405180910390fd5b5f6040518060a001604052808773ffffffffffffffffffffffffffffffffffffffff1681526020013373ffffffffffffffffffffffffffffffffffffffff16815260200186868080601f0160208091040260200160405190810160405280939291908181526020018383808284375f81840152601f19601f8201169050808301925050505050505081526020018481526020018381525090505f81908060018154018082558091505060019003905f5260205f2090600502015f909190919091505f820151815f015f6101000a81548173ffffffffffffffffffffffffffffffffffffffff021916908373ffffffffffffffffffffffffffffffffffffffff1602179055506020820151816001015f6101000a81548173ffffffffffffffffffffffffffffffffffffffff021916908373ffffffffffffffffffffffffffffffffffffffff1602179055506040820151816002019081610dbf919061228e565b506060820151816003015560808201518160040155505060015f8773ffffffffffffffffffffffffffffffffffffffff1673ffffffffffffffffffffffffffffffffffffffff1681526020019081526020015f2081908060018154018082558091505060019003905f5260205f2090600502015f909190919091505f820151815f015f6101000a81548173ffffffffffffffffffffffffffffffffffffffff021916908373ffffffffffffffffffffffffffffffffffffffff1602179055506020820151816001015f6101000a81548173ffffffffffffffffffffffffffffffffffffffff021916908373ffffffffffffffffffffffffffffffffffffffff1602179055506040820151816002019081610ed9919061228e565b506060820151816003015560808201518160040155505060025f3373ffffffffffffffffffffffffffffffffffffffff1673ffffffffffffffffffffffffffffffffffffffff1681526020019081526020015f2081908060018154018082558091505060019003905f5260205f2090600502015f909190919091505f820151815f015f6101000a81548173ffffffffffffffffffffffffffffffffffffffff021916908373ffffffffffffffffffffffffffffffffffffffff1602179055506020820151816001015f6101000a81548173ffffffffffffffffffffffffffffffffffffffff021916908373ffffffffffffffffffffffffffffffffffffffff1602179055506040820151816002019081610ff3919061228e565b5060608201518160030155608082015181600401555050823373ffffffffffffffffffffffffffffffffffffffff168773ffffffffffffffffffffffffffffffffffffffff167f0d07afa2e6fb66eff69f0e895be434f5e0bf9d95f9de823dde33153d5ec1818988888760405161106c93929190612397565b60405180910390a4505050505050565b60605f73ffffffffffffffffffffffffffffffffffffffff168273ffffffffffffffffffffffffffffffffffffffff16036110ec576040517f08c379a00000000000000000000000000000000000000000000000000000000081526004016110e390612411565b60405180910390fd5b60025f8373ffffffffffffffffffffffffffffffffffffffff1673ffffffffffffffffffffffffffffffffffffffff1681526020019081526020015f20805480602002602001604051908101604052809291908181526020015f905b828210156112c5578382905f5260205f2090600502016040518060a00160405290815f82015f9054906101000a900473ffffffffffffffffffffffffffffffffffffffff1673ffffffffffffffffffffffffffffffffffffffff1673ffffffffffffffffffffffffffffffffffffffff168152602001600182015f9054906101000a900473ffffffffffffffffffffffffffffffffffffffff1673ffffffffffffffffffffffffffffffffffffffff1673ffffffffffffffffffffffffffffffffffffffff16815260200160028201805461122290611e8c565b80601f016020809104026020016040519081016040528092919081815260200182805461124e90611e8c565b80156112995780601f1061127057610100808354040283529160200191611299565b820191905f5260205f20905b81548152906001019060200180831161127c57829003601f168201915b505050505081526020016003820154815260200160048201548152505081526020019060010190611148565b505050509050919050565b60605f60015f8773ffffffffffffffffffffffffffffffffffffffff1673ffffffffffffffffffffffffffffffffffffffff1681526020019081526020015f2090505f8367ffffffffffffffff81111561132d5761132c6120c4565b5b60405190808252806020026020018201604052801561136657816020015b611353611875565b81526020019060019003908161134b5790505b5090505f808690505b83805490508110801561138157508582105b156115b1578773ffffffffffffffffffffffffffffffffffffffff168482815481106113b0576113af61242f565b5b905f5260205f2090600502016001015f9054906101000a900473ffffffffffffffffffffffffffffffffffffffff1673ffffffffffffffffffffffffffffffffffffffff160361159e5783818154811061140d5761140c61242f565b5b905f5260205f2090600502016040518060a00160405290815f82015f9054906101000a900473ffffffffffffffffffffffffffffffffffffffff1673ffffffffffffffffffffffffffffffffffffffff1673ffffffffffffffffffffffffffffffffffffffff168152602001600182015f9054906101000a900473ffffffffffffffffffffffffffffffffffffffff1673ffffffffffffffffffffffffffffffffffffffff1673ffffffffffffffffffffffffffffffffffffffff1681526020016002820180546114dd90611e8c565b80601f016020809104026020016040519081016040528092919081815260200182805461150990611e8c565b80156115545780601f1061152b57610100808354040283529160200191611554565b820191905f5260205f20905b81548152906001019060200180831161153757829003601f168201915b50505050508152602001600382015481526020016004820154815250508383815181106115845761158361242f565b5b6020026020010181905250818061159a90612489565b9250505b80806115a990612489565b91505061136f565b50808252819350505050949350505050565b60605f82846115d291906124d0565b905084805490508111156115e857848054905090505b80841061164b575f67ffffffffffffffff811115611609576116086120c4565b5b60405190808252806020026020018201604052801561164257816020015b61162f611875565b8152602001906001900390816116275790505b5091505061186e565b5f84826116589190612503565b67ffffffffffffffff811115611671576116706120c4565b5b6040519080825280602002602001820160405280156116aa57816020015b611697611875565b81526020019060019003908161168f5790505b5090505f8590505b82811015611867578681815481106116cd576116cc61242f565b5b905f5260205f2090600502016040518060a00160405290815f82015f9054906101000a900473ffffffffffffffffffffffffffffffffffffffff1673ffffffffffffffffffffffffffffffffffffffff1673ffffffffffffffffffffffffffffffffffffffff168152602001600182015f9054906101000a900473ffffffffffffffffffffffffffffffffffffffff1673ffffffffffffffffffffffffffffffffffffffff1673ffffffffffffffffffffffffffffffffffffffff16815260200160028201805461179d90611e8c565b80601f01602080910402602001604051908101604052809291908181526020018280546117c990611e8c565b80156118145780601f106117eb57610100808354040283529160200191611814565b820191905f5260205f20905b8154815290600101906020018083116117f757829003601f168201915b505050505081526020016003820154815260200160048201548152505082878361183e9190612503565b8151811061184f5761184e61242f565b5b602002602001018190525080806001019150506116b2565b5080925050505b9392505050565b6040518060a001604052805f73ffffffffffffffffffffffffffffffffffffffff1681526020015f73ffffffffffffffffffffffffffffffffffffffff168152602001606081526020015f81526020015f80191681525090565b5f81519050919050565b5f82825260208201905092915050565b5f819050602082019050919050565b5f73ffffffffffffffffffffffffffffffffffffffff82169050919050565b5f611921826118f8565b9050919050565b61193181611917565b82525050565b5f81519050919050565b5f82825260208201905092915050565b5f5b8381101561196e578082015181840152602081019050611953565b5f8484015250505050565b5f601f19601f8301169050919050565b5f61199382611937565b61199d8185611941565b93506119ad818560208601611951565b6119b681611979565b840191505092915050565b5f819050919050565b6119d3816119c1565b82525050565b5f819050919050565b6119eb816119d9565b82525050565b5f60a083015f830151611a065f860182611928565b506020830151611a196020860182611928565b5060408301518482036040860152611a318282611989565b9150506060830151611a4660608601826119ca565b506080830151611a5960808601826119e2565b508091505092915050565b5f611a6f83836119f1565b905092915050565b5f602082019050919050565b5f611a8d826118cf565b611a9781856118d9565b935083602082028501611aa9856118e9565b805f5b85811015611ae45784840389528151611ac58582611a64565b9450611ad083611a77565b925060208a01995050600181019050611aac565b50829750879550505050505092915050565b5f6020820190508181035f830152611b0e8184611a83565b905092915050565b5f80fd5b5f80fd5b611b2781611917565b8114611b31575f80fd5b50565b5f81359050611b4281611b1e565b92915050565b611b51816119c1565b8114611b5b575f80fd5b50565b5f81359050611b6c81611b48565b92915050565b5f805f8060808587031215611b8a57611b89611b16565b5b5f611b9787828801611b34565b9450506020611ba887828801611b34565b9350506040611bb987828801611b5e565b9250506060611bca87828801611b5e565b91505092959194509250565b5f60208284031215611beb57611bea611b16565b5b5f611bf884828501611b5e565b91505092915050565b611c0a81611917565b82525050565b5f82825260208201905092915050565b5f611c2a82611937565b611c348185611c10565b9350611c44818560208601611951565b611c4d81611979565b840191505092915050565b611c61816119c1565b82525050565b611c70816119d9565b82525050565b5f60a082019050611c895f830188611c01565b611c966020830187611c01565b8181036040830152611ca88186611c20565b9050611cb76060830185611c58565b611cc46080830184611c67565b9695505050505050565b5f8060408385031215611ce457611ce3611b16565b5b5f611cf185828601611b34565b9250506020611d0285828601611b5e565b9150509250929050565b5f60208284031215611d2157611d20611b16565b5b5f611d2e84828501611b34565b91505092915050565b5f602082019050611d4a5f830184611c58565b92915050565b5f80fd5b5f80fd5b5f80fd5b5f8083601f840112611d7157611d70611d50565b5b8235905067ffffffffffffffff811115611d8e57611d8d611d54565b5b602083019150836001820283011115611daa57611da9611d58565b5b9250929050565b611dba816119d9565b8114611dc4575f80fd5b50565b5f81359050611dd581611db1565b92915050565b5f805f805f60808688031215611df457611df3611b16565b5b5f611e0188828901611b34565b955050602086013567ffffffffffffffff811115611e2257611e21611b1a565b5b611e2e88828901611d5c565b94509450506040611e4188828901611b5e565b9250506060611e5288828901611dc7565b9150509295509295909350565b7f4e487b71000000000000000000000000000000000000000000000000000000005f52602260045260245ffd5b5f6002820490506001821680611ea357607f821691505b602082108103611eb657611eb5611e5f565b5b50919050565b7f4c696d6974206d7573742062652067726561746572207468616e2030000000005f82015250565b5f611ef0601c83611c10565b9150611efb82611ebc565b602082019050919050565b5f6020820190508181035f830152611f1d81611ee4565b9050919050565b7f496e76616c69642076616c696461746f722061646472657373000000000000005f82015250565b5f611f58601983611c10565b9150611f6382611f24565b602082019050919050565b5f6020820190508181035f830152611f8581611f4c565b9050919050565b7f4d65737361676520746f6f206c6f6e67000000000000000000000000000000005f82015250565b5f611fc0601083611c10565b9150611fcb82611f8c565b602082019050919050565b5f6020820190508181035f830152611fed81611fb4565b9050919050565b7f4d6573736167652063616e6e6f7420626520656d7074790000000000000000005f82015250565b5f612028601783611c10565b915061203382611ff4565b602082019050919050565b5f6020820190508181035f8301526120558161201c565b9050919050565b7f496e76616c6964207472616e73616374696f6e206861736800000000000000005f82015250565b5f612090601883611c10565b915061209b8261205c565b602082019050919050565b5f6020820190508181035f8301526120bd81612084565b9050919050565b7f4e487b71000000000000000000000000000000000000000000000000000000005f52604160045260245ffd5b5f819050815f5260205f209050919050565b5f6020601f8301049050919050565b5f82821b905092915050565b5f6008830261214d7fffffffffffffffffffffffffffffffffffffffffffffffffffffffffffffffff82612112565b6121578683612112565b95508019841693508086168417925050509392505050565b5f819050919050565b5f61219261218d612188846119c1565b61216f565b6119c1565b9050919050565b5f819050919050565b6121ab83612178565b6121bf6121b782612199565b84845461211e565b825550505050565b5f90565b6121d36121c7565b6121de8184846121a2565b505050565b5b81811015612201576121f65f826121cb565b6001810190506121e4565b5050565b601f82111561224657612217816120f1565b61222084612103565b8101602085101561222f578190505b61224361223b85612103565b8301826121e3565b50505b505050565b5f82821c905092915050565b5f6122665f198460080261224b565b1980831691505092915050565b5f61227e8383612257565b9150826002028217905092915050565b61229782611937565b67ffffffffffffffff8111156122b0576122af6120c4565b5b6122ba8254611e8c565b6122c5828285612205565b5f60209050601f8311600181146122f6575f84156122e4578287015190505b6122ee8582612273565b865550612355565b601f198416612304866120f1565b5f5b8281101561232b57848901518255600182019150602085019450602081019050612306565b868310156123485784890151612344601f891682612257565b8355505b6001600288020188555050505b505050505050565b828183375f83830152505050565b5f6123768385611c10565b935061238383858461235d565b61238c83611979565b840190509392505050565b5f6040820190508181035f8301526123b081858761236b565b90506123bf6020830184611c67565b949350505050565b7f496e76616c6964206e6f6d696e61746f722061646472657373000000000000005f82015250565b5f6123fb601983611c10565b9150612406826123c7565b602082019050919050565b5f6020820190508181035f830152612428816123ef565b9050919050565b7f4e487b71000000000000000000000000000000000000000000000000000000005f52603260045260245ffd5b7f4e487b71000000000000000000000000000000000000000000000000000000005f52601160045260245ffd5b5f612493826119c1565b91507fffffffffffffffffffffffffffffffffffffffffffffffffffffffffffffffff82036124c5576124c461245c565b5b600182019050919050565b5f6124da826119c1565b91506124e5836119c1565b92508282019050808211156124fd576124fc61245c565b5b92915050565b5f61250d826119c1565b9150612518836119c1565b92508282039050818111156125305761252f61245c565b5b9291505056fea26469706673582212201114895e14c2e4fbd47ddf50ba5fd7095c382ce9583e12ad8c7ed0571454ad1364736f6c63430008170033","linkReferences":{}},"methodIdentifiers":{"allMessages(uint256)":"9b88c806","getAllMessages()":"53f5e380","getMessages(address,address,uint256,uint256)":"863d1f20","getMessagesByNominator(address)":"ff112679","getMessagesByValidator(address)":"a16007de","getTotalMessageCount()":"b021352a","nominatorToMessages(address,uint256)":"9c2055e1","submitMessage(address,string,uint256,bytes32)":"e2481858","validatorToMessages(address,uint256)":"c34688ea"},"id":21}